:020000040800F2
:10000000380C002089010008E31D00086F14000867
:10001000E11D0008AF0200083B1F000800000000BF
:10002000000000000000000000000000E71D0008C4
:10003000B102000800000000E51D0008E91D0008ED
:10004000A3010008A3010008A3010008A301000800
:10005000A3010008A3010008A3010008A3010008F0
:10006000A3010008A3010008A3010008A3010008E0
:10007000A3010008A3010008A3010008A3010008D0
:10008000A3010008A3010008A3010008A3010008C0
:10009000A3010008A3010008A3010008A3010008B0
:1000A000A3010008A3010008A3010008A3010008A0
:1000B0004D1E0008A3010008A3010008A3010008C9
:1000C000A3010008A3010008A3010008A301000880
:1000D000A3010008A3010008A3010008A301000870
:1000E000A3010008A3010008A301000800F002F822
:1000F00000F03AF80AA090E8000C82448344AAF188
:100100000107DA4501D100F02FF8AFF2090EBAE885
:100110000F0013F0010F18BFFB1A43F0010318473B
:100120000837000028370000103A24BF78C878C18B
:10013000FAD8520724BF30C830C144BF04680C60ED
:10014000704700000023002400250026103A28BF35
:1001500078C1FBD8520728BF30C148BF0B60704739
:100160001FB51FBD10B510BD00F06CF81146FFF7AC
:10017000F7FF02F039F900F08AF803B4FFF7F2FF55
:1001800003BC00F08DF8000009488047094800478B
:10019000FEE7FEE7FEE7FEE7FEE7FEE7FEE7FEE737
:1001A000FEE7FEE704480549054A064B7047000094
:1001B0004B1E0008ED00000838060020380C002017
:1001C00038080020380800204FF0000200B5134620
:1001D00094469646203922BFA0E80C50A0E80C5067
:1001E000B1F12001BFF4F7AF090728BFA0E80C5018
:1001F00048BF0CC05DF804EB890028BF40F8042B11
:1002000008BF704748BF20F8022B11F0804F18BF7D
:1002100000F8012B704770477047704710B500F029
:1002200009F8006810BD10B5044600F003F804603A
:1002300010BD000000487047D405002000487047FA
:10024000D40500207546FFF7F9FFAE460500694664
:10025000534620F00700854618B020B5FFF7A2FFEF
:10026000BDE820404FF000064FF000074FF00008B7
:100270004FF0000B21F00701AC46ACE8C009ACE838
:10028000C009ACE8C009ACE8C0098D46704710B59C
:100290000446AFF300802046BDE81040FFF76DBF75
:1002A00001491820ABBEFEE7260002007047FEE7BA
:1002B000704772B6FEE7000070B5044600F0FEF825
:1002C0000546601C02D004480078044400F0F6F8AB
:1002D000401BA042FAD370BDA80000202DE9F84FC2
:1002E000DFF8B8910024A9F1040B23460F2709F188
:1002F000040AABF1040EC9E00125A5402A40AA4238
:100300007DD1674ED1F804C0ACEB0608B44532D0BD
:1003100014DCBCF1030F3AD009DCBCF1000F2AD089
:10032000BCF1010F1CD0BCF1020F31D11DE0BCF1BA
:10033000110F17D0BCF1120F2AD119E0B8F5881FA0
:1003400019D006DCB8F5803F15D0B8F5801F1FD155
:1003500011E0B8F5001F0ED0B8F5041F18D10AE05F
:10036000CB6815E0CB681B1D12E0CB6808330FE0AB
:10037000CB680C330CE08B682BB1012B4FF00803DA
:1003800003D0456104E0042302E0056100E000239E
:10039000FF2A01D8064601E000F104064FEA840571
:1003A00001D9A5F12005D6F8008007FA05FC28EA56
:1003B0000C0803FA05F548EA0508C6F800804D6800
:1003C000ED0062D5374DAE6946F00106AE61AD690C
:1003D00024F0030605F001050095334D06EB050CEE
:1003E000DCF80850A607360F07FA06F825EA0805D4
:1003F000DFF8B880404503D14FF0000817E044E033
:10040000DFF8AC80404502D14FF001080FE0DFF883
:10041000A480404502D14FF0020808E0DFF8988040
:10042000404502D14FF0030801E04FF0040808FAFC
:1004300006F848EA0508CCF808804D68D9F800604D
:10044000ED024D4601D5164300E096432E604D68FF
:10045000DAF80060AD02554601D5164300E0964338
:100460002E604D68DBF80060AD035D4601D5164394
:1004700000E096432E604D68DEF80060ED0375469F
:1004800001D5164300E096432E60641C0D682A4691
:10049000E5407FF431AFBDE8F88F0000080401406B
:1004A000000011100010024000000140000801404F
:1004B000000C014000100140001401400148806818
:1004C00070470000A800002070B5040025D094F803
:1004D0003D00002520B984F83C50204600F07EFA0B
:1004E000242084F83D002068016821F001010160AA
:1004F0002068016841F4004101602068016821F42E
:100500000041016000F0C6FB4D4A6168914201D88C
:100510004C4900E04C49884201D2012070BD4B4952
:100520002368B0FBF1F15E6826F03F060E435E6083
:100530006368934206D94FF4967359434FF47A7324
:10054000B1FBF3F12368491C1E6A26F03F063143D4
:1005500019626168914210D84900401EB0FBF1F267
:10056000521CC2F30B02042A01D2042022E0B0FB89
:10057000F1F0401CC0F30B001CE0A268F2B301EBE9
:10058000C10303EB0116431EB3FBF6F35B1C43F4FC
:1005900080431B0549D092B301EBC10202EB01116C
:1005A000401EB0FBF1F0401CC0F30B0040F4804053
:1005B00040F400402168CA694CF6FF739A43104327
:1005C000C861D4E9071001432068026822F0C00224
:1005D00011430160D4E9030101432068826848F2B5
:1005E000FF339A4311438160D4E905010843216830
:1005F000CA6822F0FF021043C86001E00EE016E076
:100600002068016841F0010101602564202084F820
:100610003D00256384F83E50002070BD01EB41068B
:10062000431EB3FBF6F35B1CB3E70120C2E701EB0B
:100630004101401EB0FBF1F0401CC0F30B00B7E7D6
:10064000A086010080841E0000093D0040420F008A
:100650002DE9FF4F83B00025DDE910799A469346D6
:100660000446DDF848800095FFF728FF064694F819
:100670003D0020287CD1192301228849204600967C
:1006800001F00CF80028F5D194F83C0001286FD057
:10069000012084F83C0020680168C90703D1016883
:1006A00041F0010101602068016821F400610160EE
:1006B000222084F83D00402084F83E0025646762D3
:1006C000A4F82A90608D20857548E062CDE9008607
:1006D00053465A462046049900F0E2FE00287CD199
:1006E000208DDFF8C091202768B1012814D002289E
:1006F000206801681ED041F4806101602068416972
:1007000080690090BCE020684169816900910168BE
:1007100041F400710160B3E02068016821F4806158
:10072000016072B62068416981690091016841F4F5
:1007300000710AE041F40061016072B6206841690D
:1007400081690091016821F48061016062B697E0DF
:10075000032865D801280CD0022843464FF0000238
:100760004946204600960BD000F098FFA8BB0CE04D
:1007700091E032464146204601F036F868BB72E00F
:1007800000F08CFF48BB72B633E02068016821F4AA
:100790008061016072B620680069616A0870606AF1
:1007A000401C6062208D401E2085608D401E60854B
:1007B0003D4846F2A8110068B0FBF1F0C0EBC00064
:1007C00000EB80000090401E009007D02068406938
:1007D000C04340070DD50098F5E727E044F8305FA7
:1007E0006773A573206940F02000206162B625730D
:1007F0001CE02068016841F4007101602068006914
:10080000616A0870606A401C6062218D491E218502
:10081000618D491E618562B621680969017026E013
:1008200032464146204600F0DFFF18B1012007B0F4
:10083000BDE8F08F20680069616A0870606A401C3A
:100840006062208D401E81B22185608D401E6085D2
:1008500020684269D243520712D4032903D10168A8
:1008600021F48061016020680069616A0870606A33
:10087000401C6062208D401E2085608D401E60857A
:10088000208D00287FF464AF84F83D7084F83E50DA
:1008900084F83C50CBE70220C9E7000002001000BA
:1008A0000000FFFF04000100B40000202DE9FF4F0D
:1008B00083B09A46DDE9119793460446DDF84080FF
:1008C000FFF7FCFD054694F83D0020287FD1192351
:1008D000012240492046009500F0E0FE002876D134
:1008E00094F83C00012872D0012084F83C00206874
:1008F0000168C90703D1016841F001010160206866
:10090000016821F400610160212084F83D0040204D
:1009100084F83E0000262664C4F82480A4F82A90B7
:10092000608D20852C48E062CDE9007553465A461B
:100930002046049900F032FE70B930E02A4639466C
:10094000204600F089FF58B1206C042804D12068AB
:10095000016841F400710160012007B0BDE8F08F2B
:10096000606A216800780861606A401C6062218DBD
:10097000491E89B22185628D521E628522685369A3
:10098000DB435B070BD469B100781061606A401CDF
:100990006062208D401E2085608D401E6085208D08
:1009A0000028CBD12A463946204600F04BFE0028CD
:1009B000CAD154F83D0B016841F400710160202058
:1009C00004F81E09E67766770020C6E7FFE70220F5
:1009D000C3E70000020010000000FFFF10B586B062
:1009E0000021009101910291039100680F49884212
:1009F0001AD10F4CA06940F00800A061A0696946B7
:100A000000F008000490C020009012200190032004
:100A100003900848FFF762FCE06940F40010E061D1
:100A2000E06900F40010049006B010BD00540040CE
:100A300000100240000C0140024881680278114415
:100A400081607047A8000020074810B5016841F098
:100A500010010160032000F075F80F2000F006F887
:100A600000F024F8002010BD0020024070B50D4DAC
:100A700004464FF47A712878B1FBF0F00A4909680E
:100A8000B1FBF0F000F0CCFA48B9102C07D20022EC
:100A90002146501E00F036F800206C6070BD012029
:100AA00070BD0000A8000020B40000200C4808B56C
:100AB000816941F001018161816901F001010091C9
:100AC000C16941F08051C161C06900F0805000905F
:100AD0000448416821F0E06141F08061416008BD57
:100AE0000010024000000140002809DB00F01F0256
:100AF000012191404009800000F1E020C0F8001180
:100B000070470000F0B40E4B1B680C46C3F3022381
:100B1000C3F10705042D00D90425191D072901D2A9
:100B2000002300E0DB1E012606FA05F1491E2140E4
:100B300099409E40761E16403143F0BC01F012BA37
:100B40000CED00E0064900F0070208684FF6FF03CD
:100B5000184040EA0220034A104308607047000032
:100B60000CED00E00000FA052DE9F0470F46050006
:100B700061D0434E306800F00700B84209D23068B7
:100B800020F0070038433060306800F00700B842BA
:100B900051D128683B4C810712D5400703D56068C6
:100BA00040F4E06060602878000703D5606840F496
:100BB000605060606068A96820F0F00008436060E1
:100BC0002878C00728D06868012810D0216802283A
:100BD00010D0890700292EDA616821F00301014352
:100BE0006160FFF76BFC804641F288390DE02168B7
:100BF0008903EFE78901EDE7FFF760FCA0EB08014F
:100C0000494502D90320BDE8F0876068696800F0B3
:100C10000C00B0EB810FEFD1306800F00700B84254
:100C20000BD9306820F0070038433060306800F09E
:100C30000700B84201D00120E5E72878400705D534
:100C40006068E96820F4E060084360602878000785
:100C500006D56068296920F4605040EAC1006060F0
:100C600000F028F86168084AC1F30311515CC840DC
:100C70000649086006480068FFF7F8FE0020C2E752
:100C8000002002400010024070370008B40000202D
:100C9000AC0000200448054900684968044AC1F3D3
:100CA0000221515CC8407047B4000020001002408F
:100CB000803700080E4A51680E4801F00C03042BDF
:100CC00011D0082B0FD10C48C1F38343C903C05C7A
:100CD0000AD55168084AC1F34041921E515C054A49
:100CE0005043B0FBF1F0704704494843704700009F
:100CF0000010024000127A006037000800093D0031
:100D00002DE9F84F040070D02078C04DC00749D0BD
:100D10006868C0F38100012807D06868C0F38100CB
:100D2000022809D16868C00306D52868800339D530
:100D300060680028E7D035E06068B0F5803F0BD0F0
:100D400010B1B0F5A02F11D0286820F480302860B1
:100D5000286820F4802002E0286840F48030286071
:100D6000606890B1FFF7AAFB06460AE0286840F4E5
:100D700080202860F0E700BFFFF7A0FB801B6428FD
:100D800073D828688003F7D50CE0FFF797FB064679
:100D900005E000BFFFF792FB801B6428F0D82868AD
:100DA0008003F7D420789A4E80074FF001094FF066
:100DB000000839D5686810F00C0F07D06868C0F3D8
:100DC0008100022809D16868C00306D4286880071A
:100DD00014D52069012808D110E02069B0B1C6F807
:100DE0000090FFF76BFB074605E00AE1FFF766FBA3
:100DF000C01B0228C4D828688007F7D52868616915
:100E000020F0F80040EAC10028600DE0C6F800803C
:100E1000FFF754FB074604E0FFF750FBC01B022816
:100E200023D828688007F7D4207800072CD5794884
:100E3000A169D9B1C0F80090FFF740FB074604E074
:100E4000FFF73CFBC01B02280FD8686A8007F7D564
:100E500071484FF4FA510068B0FBF1F0009000BF08
:100E60000098411E0091FAD20EE080E0C0F80080A8
:100E7000FFF724FB074604E0FFF720FBC01B022816
:100E800075D8686A8007F7D42078400760D5E8698C
:100E90000027C00008D4E86940F08050E861E869A4
:100EA000012700F0805000905C480168C90513D408
:100EB0000168834641F480710160FFF7FFFA8246C2
:100EC00006E000BFFFF7FAFAA0EB0A0064284ED84C
:100ED000DBF80000C005F5D5E06801280AD008B1AC
:100EE000052813D0286A20F001002862286A20F023
:100EF000040002E0286A40F001002862E06841F244
:100F0000883B98B1FFF7DAFA82460BE0286A40F096
:100F100004002862EEE700BFFFF7D0FAA0EB0A0159
:100F200059455AD8286A8007F6D50CE0FFF7C6FA6B
:100F3000824605E0FFF7C2FAA0EB0A0159454CD8FA
:100F4000286A8007F6D41FB1E86920F08050E86174
:100F5000E06988B36968C1F38101022944D002289D
:100F6000C6F8608004D0FFF7A9FA044638E034E000
:100F7000FFF7A4FA074604E0FFF7A0FAC01B022817
:100F80002BD828688001F7D4206AB0F5803F05D1BE
:100F90006868A16820F4003008436860D4E908015B
:100FA0000843696821F4741108436860C6F86090CA
:100FB000FFF784FA044606E025E000BFFFF77EFA5B
:100FC000001B022809D828688001F7D51BE000BF64
:100FD000FFF774FA001B022802D90320BDE8F88F3E
:100FE00028688001F4D40EE00128F7D06868226AEE
:100FF00000F48031914204D1616A00F4701088429B
:1010000001D00120EAE70020E8E7000000100240DC
:101010000000424280044242B400002000700040C0
:1010200010B5401EB0F1807F01D3012010BD4FF0FC
:10103000E02460610F21601700F094FF0020A061A0
:1010400007202061002010BD7047704770B590F8F0
:101050003C20012A26D0012480F83C40022280F85E
:101060003D2003685A689D6822F070060A68324382
:101070005A600D4B02689A4208D0B2F1804F05D0F9
:101080000A4B9A4202D00A4B9A4204D1496825F091
:1010900080031943916080F83D40002180F83C10A6
:1010A000084670BD022070BD002C014000040040C5
:1010B0000008004010B5040003D094F83D0010B1C2
:1010C00007E0012010BD002084F83C00204600F01D
:1010D0001FF8022084F83D00211D206800F0BCFEAE
:1010E000012084F8460084F83E0084F83F0084F82C
:1010F000400084F8410084F8420084F8430084F8FA
:10110000440084F8450084F83D00002010BD000034
:1011100008B50068B0F1804F12D10A48C16941F0AA
:101120000101C161C069002200F001000090114678
:101130001C20FFF7E7FCBDE808401C20FFF7D4BCEB
:1011400008BD00000010024090F83D10012901D0B8
:1011500001207047022180F83D100168CA6842F002
:101160000102CA6000680B49884208D0B0F1804F84
:1011700005D00949884202D00849884204D18168D3
:1011800001F00701062903D0016841F00101016067
:1011900000207047002C014000040040000800407F
:1011A00070B5044690F83C000025012817D00126B0
:1011B00084F83C60022084F83D002068826822F0B8
:1011C000770222F47F4282600868502838D00DDC14
:1011D00020284FD005DC90B3102811D14AE002201E
:1011E00070BD302846D040280AD13BE060282FD07F
:1011F00070280DD0B0F5805F03D0B0F5005F12D03D
:10120000012584F83D60002084F83C00284670BD2C
:10121000CB68D1E90121206800F05AFE206881687E
:1012200041F0770109E0CB68D1E90121206800F0A5
:101230004FFE2068816841F480418160E1E719E058
:10124000CA684968206800F055FE5021206806E011
:10125000CA684968206800F05EFE6021206800F0DE
:1012600041FECEE7CA684968206800F043FE40218D
:101270002068F4E7226801461046F0E770472DE940
:10128000F04104460068C66805694FF00007A907E9
:1012900013D5B10711D5F91E01610120207720680F
:1012A00080698007204602D0FFF7E8FF04E000F0E5
:1012B0007EF8204600F07CF82777680716D570077F
:1012C00014D521686FF0040008610220207720689F
:1012D000806910F4407F204602D0FFF7CFFF04E082
:1012E00000F065F8204600F063F82777280715D549
:1012F000300713D521686FF00800086104202077BB
:101300002068C0698007204602D0FFF7B7FF04E0DD
:1013100000F04DF8204600F04BF82777E80616D588
:10132000F00614D521686FF01000086108202077BE
:101330002068C06910F4407F204602D0FFF79EFF6E
:1013400004E000F034F8204600F032F82777E80790
:1013500008D0F00706D021686FF001000861204630
:1013600000F028F8280608D5300606D521686FF069
:10137000800008612046FFF767FE680608D5700602
:1013800006D521686FF040000861204600F06EF835
:10139000A8060AD5B00608D521686FF020000861BC
:1013A0002046BDE8F041FFF750BEBDE8F081704730
:1013B0007047000070B50068B0F1804F4BD12649EE
:1013C000264800F083FB244BD3E90201D3E906232E
:1013D00081F0004100F048FF4FF06632204B01F0F1
:1013E00039FC204B1C4D1A78283D05EBC204521CD9
:1013F000C4E900010A20B2FBF0F100FB11201870D3
:10140000002001464FEA000405EBC403D3E90023A2
:1014100001F03AF9641CE4B2052CF5D30022124B1A
:1014200001F0EEF921F0004101F07EFB45000020C3
:1014300001F03EF8002407E0C4F14000C0B20122F0
:10144000282101F015F8641CAC42F5DBBDE87040C2
:10145000024801F0E1B870BDE00000203801002032
:1014600066A64C4000000020000014407047FEE7D4
:1014700001684A69D24352050FD46FF480624A6111
:10148000002140F8301F202242738173026942F02C
:1014900004020261017301207047002070470000C0
:1014A0002DE9F84F0446006889460B9D016898466F
:1014B000174641F4806101602068016841F4807141
:1014C000016000954FF0011B0022594620460A9BFF
:1014D00000F0E4F84FF4007A40B120680068C005DD
:1014E00001D5C4F840A00320BDE8F88F216809F0B9
:1014F000FE0008612B46284920460A9A00F016F99A
:10150000F0BB20684169806900902A4620460A990C
:1015100000F0A2F940B1206C04283AD1206801689B
:1015200041F40071016034E0FEB2B8F1010F09D05E
:101530002168380A08612A4620460A9900F08CF989
:101540000028E8D1206806612A4620460A9900F062
:1015500083F90028DFD12068016841F480710160BF
:1015600000950022594620460A9B00F097F8002873
:10157000B3D1216809F0FF0040F00100086100E0EC
:1015800007E02B46044920460A9A00F0CFF80028CD
:10159000AAD00120A8E70000020001002DE9F843CD
:1015A000044600680D46DDE908970168984616462E
:1015B00041F4807101604B4600224FF0011120463A
:1015C000009700F06BF848B120680068C00502D5AC
:1015D0004FF4007020640320BDE8F883216805F013
:1015E000FE0008613B464A461549204600F09EF839
:1015F00088B920684169806900903A46494620468A
:1016000000F02AF948B1206C042804D12068016850
:1016100041F4007101600120DEE7F5B2B8F1010F7D
:1016200009D02168300A08613A464946204600F050
:1016300013F90028E7D1206805610020CCE70000FD
:101640000200010070B516460D4604461EE0204615
:10165000FFF70EFF08B1012070BD681C16D0FEF721
:101660002DFF801BA84200D885B920684069C0437F
:1016700040070BD5002044F8300F20216173A07380
:10168000216941F0200121612073E4E7206840696D
:10169000C0434007DBD4002070BD00002DE9F047B7
:1016A000984617460D460446C1F30746DDF82090DC
:1016B0002AE000BFB8F1FF3F26D0FEF7FFFEA0EB07
:1016C0000901414502D8B8F1000F1DD12068012E53
:1016D00016D0806925EA00000004000C12D000201A
:1016E000B84211D1002044F8300F20216173A0735B
:1016F000216941F02001216120730120BDE8F087BC
:101700004069E7E70120EBE72068012E0AD08069F5
:1017100025EA00000004000C06D00020B842C9D021
:101720000020EBE74069F3E70120F7E72DE9F047F8
:10173000984616460D4604464FF000094FF0200A21
:10174000C1F3074723E020684069C043400515D432
:101750002068016841F40071016021686FF48060C5
:101760004861C4F8309084F83DA084F83E90216C24
:1017700041F00401216484F83C9021E0701C06D003
:10178000FEF79CFEA0EB0800B04203D816B1012F73
:101790001FD021E02068012F15D0806925EA0000C4
:1017A0000004000C18D000BF44F8309F84F80DA04E
:1017B00084F80E90216941F02001216184F80C9099
:1017C0000120BDE8F087406925EA00000004000C14
:1017D000EAD12068406901E02068806925EA0000BC
:1017E0000004000CAFD1ECE72DE9F0410025904654
:1017F0000E460446202728E04069C043C0060CD4AA
:1018000054F8301B6FF01000486144F810596777A6
:10181000A577206A2062257714E0FEF74FFEA0EB43
:101820000800B04200D886B920684069C04340062D
:101830000BD544F8305F6773A573206940F0200032
:10184000206125730120BDE8F08120684169C9430A
:101850004906D1D40020F6E770B516460D46044679
:101860001EE02046FFF704FE08B1012070BD681C91
:1018700016D0FEF723FE801BA84200D885B9206849
:101880004069C04300060BD5002044F8300F2021EA
:101890006173A073216941F0200121612073E4E7A5
:1018A00020684069C0430006DBD4002070BD2DE9EC
:1018B000FF5F96B024AD044695E88301D4E9082380
:1018C0000893069201F0ECFB3A46434601F0C2F958
:1018D000D4E9062300F0D8FE07911290D4E910A3B2
:1018E000524638464146099301F0B4F9CDE900016A
:1018F000D4E90C939B464A4601F0D2FBD4E90E236F
:10190000CDE90B3201F0CCFBD4E9002300F0BCFEA2
:101910003A46434601F09EF9D4E90A2300F0B4FEAA
:1019200005460E46DDE900014A465B4601F0C6FA6F
:101930008B460490DDE90001DDE90B3201F0BEFACF
:101940000D910090D4E902013A46434601F082F934
:101950005246099B00F098FECDE90E01D4E904231C
:101960002846314600F090FE80468A4602460B46E5
:101970002846314600F044FF81460F464246534612
:101980000D99009800F03CFF80468A46DDE9180179
:10199000079B129A01F084FB0B914A463B4610903C
:1019A00001F058F9079B129A00F06EFEC4E9060197
:1019B00007911290404651460B9B109A01F04AF94C
:1019C000089B069A00F060FEC4E90801049806909E
:1019D0002A4633464846394601F03CF92A46334602
:1019E00001F06CFAC4E90A015B4648463946069A9A
:1019F00001F030F95B46049A01F060FAC4E90C0189
:101A00002A4633464046514601F024F90D9B009A80
:101A100001F054FAC4E90E015B4640465146069A6D
:101A200001F018F9DDE90E2301F048FAC4E91001CC
:101A3000079912981AB0BDE8F09F2DE9F04186B0E1
:101A40008046012504A8CDE9000564242B467522B3
:101A5000D02102944046FEF7FBFD9DF8100070284F
:101A600003D0012006B0BDE8F081002703AE8DF859
:101A70000C700096CDE9015401236B22D021404621
:101A8000FEF714FF07208DF80C000096CDE90154F5
:101A900001231922D0214046FEF708FF8DF80C7073
:101AA0000096CDE9015401231C22D0214046FEF7C7
:101AB000FDFE8DF80C700096CDE9015401231B2228
:101AC000D0214046FEF7F2FE0020CBE72DE9F04F93
:101AD00089B00C4664230E2204A98DE80E00012370
:101AE0003B22D021FEF7B4FDBDF8100040BA00B291
:101AF0002080BDF8121049BA09B261808946BDF84C
:101B0000141049BA09B2A1808846BDF8161049BA26
:101B10000FFA81FABDF8181049BA0FB22784BDF840
:101B20001A1049BA0EB26684BDF81C1049BA0DB23B
:101B3000A58401F028F86FF00D0B5A4601F0C9FD9D
:101B4000C4E90201484601F01EF85A4601F0C1FD01
:101B5000C4E90401404601F016F80022614B00F090
:101B60004FFEC4E90601504601F0A8FC5E4901F0B1
:101B7000E3FB5E4901F07EFB2064384601F003F888
:101B80005B4F00223B4600F03BFEC4E90A013046B1
:101B900000F0F9FF00223B4600F032FEC4E90C01E0
:101BA000284600F0F0FF00223B4600F029FEC4E981
:101BB0000E01FEF783FC4F4D2968401A00F0FAFF32
:101BC00000224D4B00F01CFE81468A46FEF776FC53
:101BD0002860B4F90010B4F90400494300FB001078
:101BE00000F0D1FF00F01EFC002205460E46134611
:101BF00000F05EFF10D0B4F9020000F0C4FF2A46E6
:101C0000334600F0FDFD00F01FFA3C4A3C4B01F06A
:101C100021F80746884601E00027B846B4F90400D9
:101C200000F0B1FF0646B4F900000D46404200F056
:101C3000AAFF32462B4600F017FB304A304B01F02A
:101C400009F8DFF8C0B005460E4600225B4600F0FA
:101C5000C5FF06D2D4E9140100222B4B01F0F8F89D
:101C60000DD30022284B2846314601F0F1F80DD261
:101C7000D4E9140100225B4600F0B0FF06D21D48F3
:101C80005030C0E90656C4E914560DE0CDE9029A79
:101C9000D4E90C01CDE9000116482A4633465030FC
:101CA000FFF705FEC4E91401D4E9140121F0004155
:101CB0000022154B01F0CCF803D2E16A81F000411B
:101CC000E162CDE9029AD4E90A01CDE900010948AF
:101CD0003A4643460830FFF7EAFDC4E9120109B06D
:101CE000BDE8F08F0029CC400000AA43B81E124284
:101CF000006060400800002000408F40F8C1631A77
:101D0000DCA54C40008056C000805640094808B50C
:101D1000816941F020018161816901F02001009118
:101D2000816941F008018161806900F0080000903C
:101D300008BD0000001002400D4810B50B490160BD
:101D40000C49416000214FF480428160C0E90312D8
:101D500041618161C1610162FEF7B6FB002803D0D9
:101D6000BDE81040FEF7A5BA10BD000000540040C9
:101D700038010020A086010010B586B00024174865
:101D8000009401940294039404944FF080410594CC
:101D900001604721C0E9011442F21071C0E9031447
:101DA00080218161FFF786F908B1FEF782FA4FF4CE
:101DB0008050009069460948FFF7F2F908B1FEF734
:101DC00078FA049404A905480594FFF73FF9002820
:101DD00001D0FEF76EFA06B010BD00008C010020A5
:101DE000FEE7FEE770477047FEF726BE30B58FB0BE
:101DF00028216846FEF7E8F914210AA8FEF7E4F95D
:101E000001210804CDE90010002402940225049168
:101E1000CDE907504FF4E01009906846FEF770FFD7
:101E200008B172B6FEE70F20CDE90A054FF48060D5
:101E3000CDE90C4002210AA80E94FEF795FE002879
:101E400001D072B6FEE70FB030BD70470148FFF712
:101E500016BA00008C010020F0B50268194B1A4C2C
:101E60001A4D4FF08047984205D0B84203D0A042A7
:101E700001D0A84203D122F070064A68324398424A
:101E800005D0B84203D0A04201D0A84203D122F429
:101E90004074CA6822434C6922F0800222430260E7
:101EA0008A68C2620A688262984201D10969016344
:101EB000012141610169C90703D0016921F00101D4
:101EC0000161F0BD002C014000040040000800400A
:101ED00010B5846842EA032224F47F440A43224373
:101EE000826010BD826822F070020A4342F007014E
:101EF0008160704710B5036A046A24F0010404622B
:101F0000846924F0F00444EA021423F00A020A432C
:101F10008461026210BD10B5036A046A24F01004E3
:101F20000462846923F0A00324F4704444EA02327A
:101F300043EA01118261016210BDFEE7490050EAE7
:101F4000C12018BF04204A0D18BF40F0010040F224
:101F5000FF72B2EB515F08BF40F00200012808BFDA
:101F6000052070470907090E002804DB00F1E02076
:101F700080F80014704700F00F0000F1E02080F8B6
:101F8000141D70472DE9F0414F1E00EBC7010446B8
:101F9000D1E9000115461E4637F006020DD02A464B
:101FA000334600F057FE7F1E04EBC703D3E900233E
:101FB00000F06AFB37F00602F1D1022F25D0042F82
:101FC00013D0062F18BFBDE8F0812A46334600F033
:101FD00041FED4E90A2300F057FB2A46334600F0BD
:101FE00039FED4E9082300F04FFB2A46334600F0BF
:101FF00031FED4E9062300F047FB2A46334600F0C1
:1020000029FED4E9042300F03FFB2A46334600F0C2
:1020100021FED4E9022300F037FB2A46334600F0C4
:1020200019FED4E90023BDE8F04100F02DBB0122E8
:1020300001F04FBB00F028BB024A0020110701F05D
:1020400048BB000001FDFFFF2DE9F84F04460D4697
:1020500021F0004000917349814211DC72498842AD
:1020600001DC06D12CB120462946BDE8F84FFFF728
:10207000DEBF6E48002DCCBF6D496E49BDE8F88FBC
:102080006D49814211DD6D498142D8BF4FF0FF3665
:102090006DDD20462946FFF751FF042808BFFFF7F2
:1020A000CBFF20462946BDE8F88F6549654F25F0EE
:1020B0000045814233DD6449814219DD0026324604
:1020C0004FF080432046294600F0DEFA80468A46DB
:1020D00001222046294601F0FCFA00223B4600F08E
:1020E000DFFF4246534600F08BFB04460D463EE0C0
:1020F00001260022BA463B462046294600F0C4FA93
:1021000080460F46002253462046294600F0C8FF6D
:1021100042463B4600F074FB04460D4627E04B491F
:1021200081421BDDDFF828A102260022534620460B
:10213000294600F08FFD00223B4600F0A5FA8046BC
:102140000F46002253462046294600F0A9FF42468A
:102150003B4600F055FB04460D4608E003262246A8
:102160002B4600203B4900F04BFB04460D4622461F
:102170002B461046194600F06DFD8B4682460246FE
:102180000B4600F067FD07460246334888460B467B
:1021900006217844FFF7F6FE52465B4600F05AFDF2
:1021A00082462E488B463A46434605217844FFF73F
:1021B000E9FE3A46434600F04DFD02460B46002E2E
:1021C000504659460CDA00F05FFA22462B4600F0E2
:1021D00041FD01B022462B46BDE8F04F00F06EBE37
:1021E00000F052FA22462B4600F034FD1C4A7A4495
:1021F00002EBC603D3E9002300F052FF22462B4630
:1022000000F04EFF174A7A4402EBC603D3E90023DD
:1022100000F054FE009A002AB8BF81F00041BDE8EA
:10222000F88F0000000010440000F07F182D445487
:10223000FB21F93FFB21F9BF0000DC3F0000203EFD
:102240000000F33F0000F03F0000E63F0080034045
:102250000000F83F0000F0BF5A16000018160000FA
:10226000B61500007E1500002DE9F04D9446CCF126
:10227000000423F000464CEA0404524F46EAD474AA
:102280009A46884621F00042BC4206D8454240EAC0
:10229000050442EAD474BC4204D9BDE8F04D62465C
:1022A000FFF7C8BEAAF14055A5F17F6555EA0C04B9
:1022B0000BD0022404EAAA74434DDFF810E144EA8B
:1022C000D87452EA000B04D00CE0BDE8F04DFFF7E3
:1022D000BBBE002C14BF012CBDE8F08D022C30D009
:1022E000032C32D056EA0C0B0AD0BE4220D1BA429F
:1022F00009D126F0804622F080423346114617E08D
:1023000000291ADB25E0DFF8C8B0FB44002C04BF2D
:10231000DBE90001BDE8F08D012C02BFDBE9000123
:1023200081F00041BDE8F08D022C0AD0032C0CD0C6
:10233000BA4212D1B8F1000F0BDA23482549BDE8A3
:10234000F08D28462449BDE8F08D28467146BDE849
:10235000F08D1D482149BDE8F08D921B12153C2AD5
:10236000C4BF19481D490EDCBAF1000FBEBF12F1FF
:102370003C0F0020014606DB624600F041FA21F0E6
:102380000041FFF761FE002C08BFBDE8F08D012C75
:1023900004BF81F00041BDE8F08D114A114B022CC1
:1023A00007D000F07DFE2A46BDE8F04D0A4B00F054
:1023B00077BE00F075FE2A46BDE8F04D064B00F0F2
:1023C0007DBD00000000F07F182D4454FB2109C0A2
:1023D00012150000FB21F9BFFB210940FB21F93F49
:1023E000075C143326A6A13CFEF72EFBFFF7FEFC8C
:1023F000FFF78CFCFFF7A0FCFFF7BEFC0748FFF7D8
:102400001CFB08B172B6FEE7044800F061F808B1A1
:1024100072B6FEE70248FEF797FEFEE7380100209D
:102420008C0100202DE9F04106460F4600F052FDD8
:10243000041E0D4618BF0120284320F00040C0F1C3
:102440007F6000F1E040C00F0ED0301C18BF0120AB
:10245000384320F00040C0F17F6000F1E040C00F41
:1024600004BF0120FDF7DFFE20462946BDE8F081CC
:1024700070B5802813D2402911D20B4B012401F0F2
:1024800007051E79AC40094BC90800EBC1100EB11D
:1024900032B101E0012A03D0195CA143195470BD87
:1024A000195C2143FAE70000A0000020D4010020BD
:1024B00010B5064A00214FF4806328B1FF2454541C
:1024C000491C9942F9D310BD0024F8E7D40100203B
:1024D00070B505466420FDF7EFFEAE21284600F0FA
:1024E000C5F804462021284600F0C0F80444102115
:1024F000284600F0BBF80444B021284600F0B6F8A6
:102500000444C821284600F0B1F8044400212846BC
:1025100000F0ACF804441021284600F0A7F8044469
:102520004021284600F0A2F804448121284600F00A
:102530009DF80444FF21284600F098F80444A121A6
:10254000284600F093F80444A621284600F08EF8AF
:102550000444A821284600F089F804443F21284675
:1025600000F084F80444A421284600F07FF80444D5
:10257000D321284600F07AF804440021284600F0D0
:1025800075F80444D521284600F070F80444F02181
:10259000284600F06BF80444D921284600F066F87C
:1025A00004442221284600F061F80444DA21284638
:1025B00000F05CF804441221284600F057F8044467
:1025C000DB21284600F052F804442021284600F080
:1025D0004DF804448D21284600F048F804441421A5
:1025E000284600F043F80444AF21284600F03EF8A6
:1025F000E04201D0012070BD0020FFF759FF2846BE
:1026000000F00AF803480021018041800121417156
:10261000002070BDA00000202DE9FE4300246425A9
:10262000114F8046802600BF04F1B000C1B2404681
:1026300000F01CF80021404600F018F81021404638
:1026400000F014F807EBC410CDE900060123402286
:10265000782102954046FEF729F9641CE4B2082C63
:10266000E2D3BDE8FE830000D401002003B583B0AF
:102670000A23012204A98DE80E00134600227821C6
:10268000FEF714F905B000BD10B591EA030F48BF7D
:1026900083F0004300F10C85841A71EB030C05D222
:1026A000121943EB0C03001B61EB0C01DFF824E172
:1026B0004FEA1154A4EB135C1EEA430F18BF9EEAC5
:1026C000445F73D023EA0E03DCF1200E21EA0451AB
:1026D00043F4801332D322FA0CFE10EB0E0023FADF
:1026E0000CFE41EB0E01CCF1200E03FA0EFE10EBB6
:1026F0000E0051F10001B1F5801FCCF1200E32D255
:1027000001EB045112FA0EF2BDE8104058BF7047B9
:10271000401C38BF5FEA420218BF7047002814BF50
:1027200020F0010041F100014FEA410313F5001FC1
:1027300038BF7047A1F1C04100F084BB012A43EBD0
:102740000302ACF1200CDCF11F0E32BF4FF0000E83
:1027500023FA0CF310EB030041EB0451B4EB115FCF
:10276000D0D0A1EB045101F5801149085FEA300097
:1027700001EB04510ED350F1000038BF12FA0EFEE7
:1027800008D1BDE81040C9E7401C38BF5FEA4202EB
:10279000CAD1C3E7BDE810404FEA410313F5001F5B
:1027A00038BF7047A1F1C04100F04CBB9EEA445FC6
:1027B00008D011EA5E0FBDE8104004BF01F00041EF
:1027C00000207047BDE8104070B500F0EDFA00BF82
:1027D00064FBBE3E0000E0FF02494FF0000000F045
:1027E00046BF00BF0000F87F491058BFC1F140410B
:1027F0005B1058BFC3F140438B42EFF3008070473A
:102800002DE9C04130B4DFF8A0C23CEA111418BF72
:102810003CEA131400F0EC8081EA03051CEA111471
:1028200044EAD57418BF1CEA131500F0C780A4EB66
:1028300005044FF0004545EAC12145EAC32341EABA
:10284000505143EA525304F17F74994204F5003425
:102850004FEAC0204FEAC22208BF904200F09C809D
:102860004FEA13650FF24016765D4FEA134506FBFB
:1028700005F7C7F1807706FB07F74FEAD737A7FBC5
:1028800003687642C8F58038A7FB06CE38BFA8F1AA
:10289000010807FB08E64FF0000EA6FB028CE6FBE2
:1028A00003CEDCF1000CCEF1004E38BFAEF1010ECC
:1028B000A6FB0C584FF000074FF00005E6FB0E8713
:1028C000A1FB08C6A0FB07CE16EB0E0645F10005DE
:1028D000E1FB076515F1E04E7EBFA4F580345FEAA9
:1028E00046066D4116F1800745F100054FEA1727AE
:1028F0004FEA066647EA0567A6F1DE46B6F1805F55
:102900004FEA15251FD9384624F0010C05EBC47198
:10291000BCF1FE6F01EB0C1102D8F0BCBDE80081E8
:1029200024425CBF01F5801E9EEAC47F02D4F0BC45
:10293000BDE80081244238D4F0BCA1F1C041BDE81B
:10294000004100F07FBA4FEAD22242EA43524FEAF6
:10295000D323A7FB02864FEAD02040EA415007FB71
:1029600003661EEA0E0F4FEAD12105FB026658BF2F
:10297000A6EB0056B6EB00564FEA520E4EEAC37E67
:1029800018EB0E0E56EB530EBDD518EB02085E4148
:102990007F1C55F10005B6E74FF480154FF0000796
:1029A0004FF000064FF00008ADE7F0BC4FF000001C
:1029B00001F1C04101F00041BDE8008111EA0C1FA6
:1029C0000CEA131500D00CE013EA0C1F00F0258070
:1029D0004FF00000F0BC81EA030101F00041BDE8C6
:1029E0000081F0BCBDE8004181EA030100F02ABA91
:1029F000F0BCBDE8004170B500F0D6F9097EFC3EA0
:102A000000F007B881EA03014FF0000001F0004137
:102A1000704781EA030100F015BAF0BCBDE800413F
:102A20004FF0000021497047FFFDFBF9F7F5F4F284
:102A3000F0EEEDEBE9E8E6E4E3E1E0DEDDDBDAD859
:102A4000D7D5D4D3D1D0CFCDCCCBCAC8C7C6C5C4B7
:102A5000C2C1C0BFBEBDBCBBBAB9B8B7B6B5B4B3CE
:102A6000B2B1B0AFAEADACABAAA9A8A8A7A6A5A4B9
:102A7000A3A3A2A1A09F9F9E9D9C9C9B9A9999987D
:102A80009797969595949393929191908F8F8E8E20
:102A90008D8C8C8B8B8A89898888878786858584AD
:102AA00084838382828181800000FF070000F87F99
:102AB00051EA030C17D41CF5801F58BFBCF5801FCA
:102AC00000F10680994218BF704708BF90427047D6
:102AD00007D711F5801F58BF13F5801F19D49942ED
:102AE0007047894270471CF5801F08D5BCF5801FD0
:102AF000F7D58B4218BF704708BF824270474FF42A
:102B0000001C1CEB410F38BF1CEB430F01D28B4262
:102B1000704770B500F048F9922449004FF0005119
:102B20004FF08053FFF760BE4FEA41034FEA535323
:102B3000A3F58063D3F11E03C8BFD3F1210C0CDDD4
:102B40004FF0004242EAC12242EA505232FA03FCFC
:102B50008CEAE17CACEBE1707047102BC4BF002025
:102B6000704703F5787CBCF1FF3F04D06FF0004262
:102B700082EA2100704770B500F016F9499224806E
:102B800000207047F2E710F0004248BF4042B0FA20
:102B900080F310FA03F10AD0C3F11D0303F580633B
:102BA0004FEA415002EB035202EBD12170474FF044
:102BB00000007047B0FA80F310FA03F10AD0C3F1B5
:102BC0001D0303F580634FEA41504FEA035202EBC5
:102BD000D12170474FF000007047000051EA030C0C
:102BE00017D41CF5801F58BFBCF5801F00F106806C
:102BF000994218BF704708BF9042704707D711F538
:102C0000801F58BF13F5801F19D49942704789421D
:102C100070471CF5801F08D5BCF5801FF7D58B4287
:102C200018BF704708BF824270474FF4001C1CEB6E
:102C3000410F38BF1CEB430F01D28B42704770B578
:102C400000F0B2F8922449004FF000514FF0805349
:102C5000FFF7CABDDFF848C170B51CEA111E1EBFE0
:102C60001CEA13159EEA0C0F95EA0C0F00F06F801A
:102C700081EA030423EA4C134EEAD47E21EA4C1184
:102C800041F4801143F48013AE44A1FB024CA0FB3D
:102C90000365AEF17F7E361955EB0C05A1FB034CA5
:102CA0004CF10003A0FB021C16EB0C06654153F12E
:102CB0000003094218BF46F0010613F4007F0BD150
:102CC0004FEA03314FEA0530340341EA155140EA37
:102CD00016506FF003020AE04FEAC3214FEAC52005
:102CE000F40241EA555140EA56506FF0020202EBFD
:102CF0002E4201EB025585EACE710AD05FEA440C00
:102D000018BF24F0004450F1000041F1000120EA16
:102D1000D47040F2FE7C624500D270BDA84214BF60
:102D20004FF080444FF04044002E08BF0024BEF115
:102D3000806FA8BFA1F1C041BDE8704080F28280E1
:102D40004FF0000001F1C04101F0004170479EEAE0
:102D50000C0F0CEA131518BF95EA0C0F06D04FF0B4
:102D6000000081EA030E0EF0004170BD00F01CF877
:102D70008900013E00F007B800F009B84FEA430CA3
:102D80005FEA5C5C08D081EA030100F05BB84FEABF
:102D9000410C5FEA5C5CF6D14FF0000001497047DE
:102DA0000000FF070000F87F0EF1020E2EF0030E68
:102DB0005EF8046B364205D4012A43EB030515F592
:102DC000001F12D8012841EB010C1CF5001F0CD884
:102DD0000ED14FEAD17C15F5001F0CEB4C0C0CF119
:102DE000020C08BF4CEBD37C04E04FF0080C01E070
:102DF0004FEAD37C0CEB4C0526FA05F606F00706E5
:102E0000B6F1040C06D20EEB860CBDE870404CF017
:102E1000010C6047DFE80CF0090B02024FF00041A3
:102E20004FF00000A1F5002170BD194610460128A1
:102E300051EB010418BFD4F5001484BF002001F049
:102E4000004170BD0808A0F500114FEA310170473C
:102E500053EA010C17D41CF5801F58BFBCF5801F26
:102E600000F106808B4218BF704708BF824270474E
:102E700007D713F5801F58BF11F5801F19D48B4257
:102E800070479B4270471CF5801F08D5BCF5801F1A
:102E9000F7D5994218BF704708BF904270474FF46A
:102EA000001C1CEB430F38BF1CEB410F01D29942B1
:102EB00070470FB40CBC03BCFFF7C1BE91EA030F0F
:102EC00010B581F000413FF5E7AB83F0004300F01F
:102ED000EFB800002DE9F04101F5801CBCF5001FA2
:102EE000C0F2C3804FEA115C21EA0C510CF1FD0CD9
:102EF00041F480115FEA5C0C0CF5C07C01D340000A
:102F000049413DA4890241EA905187028E0E0A0C84
:102F1000A45D04FB04F602FB06F6C6F14046A4FBE2
:102F20000662F60D46EA422606FB06F4A4FB0123E0
:102F30005242C3F1404338BF5B1EA6FB024200244D
:102F4000E6FB0324D20B42EA4446A6FB0623A1FB80
:102F500002E2A3FB07E4A4184FF0000252F10002C2
:102F6000E3FB01426442C2F1404E38BFAEF1010EB4
:102F7000A6FB04234FF00002E6FB0E32A2FB034641
:102F80004FF00004B61954F10004E2FB0264A1FB07
:102F900006E6A4FB07E816EB08064FF0000858F118
:102FA0000008E4FB01687642C8F1405838BFA8F138
:102FB0000108A2FB06E4A3FB08E52D194FF000046D
:102FC00054F10004E2FB0854A1FB05E6A7FB04E86A
:102FD00018EB06084FF0000656F10006E1FB0486E8
:102FE00018F1200556F10006A809A8F11B08B1093F
:102FF00008F03F08B8F10A0F40EA86601CD901EBDF
:103000000C51BDE8F08100BFFCF5EEE8E2DDD8D35D
:10301000CFCBC7C3C0BDB9B6B4B1AEACA9A7A5A349
:10302000A19F9D9B9A9896959392908F8D8C8B895A
:103030008887868584838281A0FB006800FB01F27B
:1030400008EB4208B8EB872807D5341858EB010481
:10305000D5D5401C51F10001D1E7341A78EB0104B9
:10306000CDD4401E71F10001C9E75FEA4C0C5FEA64
:103070009C5C0DD105D34FF0000001F00041BDE88C
:10308000F081BDE8F04170B5FFF78EFE6DDBFFBE4D
:10309000BDE8F0414FF00000004970470000F87FA4
:1030A00010B591EA030F48BF83F000433FF5F4AA3F
:1030B000841A71EB030C07D212198CF0004C43EB0D
:1030C0000C03001B61EB0C01DFF8A4E14FEA115483
:1030D000A4EB135C1EEA430F18BF9EEA445F00F0A6
:1030E000B08023EA6E03524221EA0451C3EB6E031F
:1030F00038BF5B1EDCF1200E25D322FA0CFE10EB4C
:103100000E0043FA0CFE41EB0E01CCF1200E03FA47
:103110000EFE10EB0E0051F10001CCF1200E29D46F
:1031200012FA0EF201EB0451BDE8104058BF70478F
:10313000401C1CBFB2F1004F704700280CBF491C57
:1031400020F00100704712EB020E43EB030218BFA0
:103150004FF0010E4EEA4202ACF1200CDCF11E0EE3
:1031600054D943FA0CFE10EB0E0051F1FF31CCF1B3
:103170001E0ED5D50EF1010E12FA0EFE404141EBA6
:10318000010101EB445C5FEA5C5C10D910EBDE707E
:1031900001EB045138BFBEF1004FBDE8104018BF2D
:1031A000704700280CBF491C20F00100704730D246
:1031B0004FEAD42C11F5001124F400641BD0B1FAAD
:1031C00081F20B3AA41AA41ED2F12003914030FAE6
:1031D00003F31943904001EBCC71002C01EB045137
:1031E000BDE81040A8BF704701F1C0414FF000009A
:1031F00001F000417047B0FA80F310FA03F100D1FA
:1032000010BDE41A173C4805C90AE4E701EB045174
:1032100010BD491001EB0451BDE810404FEA3000E9
:1032200002E04FF0000170474A0008BF0042F8D0AA
:10323000B2F5001F28BF704701F000414FF00000B9
:1032400070479EEA445F07D011EA5E0FBDE8104068
:1032500004BF002100207047BDE8104070B5FFF7A3
:10326000A3FD00BF40DFF63E83F0004110467047EB
:103270000000E0FF90EA010F48BF81F0004100F13B
:103280008881421A3CBF801A89184FEAD0524FF009
:103290007F4C1CEA410FA2EBD15318BF9CEA026F8E
:1032A00000F03B804FF0004C4CEA00204CEA01213A
:1032B00021FA03FC10EB0C0C1ED202F1FF325FEA84
:1032C0001C2040EBC25038BF70471CF07F0F4FEA04
:1032D000400C18BFBCF17F4F38BF7047C3F12003CB
:1032E000994008BF20F00100BCF17F4F38BF704704
:1032F000A0F1C04000F040B94FEA3C00000A40EBAA
:10330000C25028BF1CF0FF0F4FEA400CE6D018BF98
:10331000BCF17F4F38BF7047EAE79CEA026F05D0E7
:1033200010EA5C0F08BF00F00040704710B500F0D5
:10333000DDF800BF64FBBE3E4FF47F0C1CEAD012E8
:103340001EBF1CEAD11392EA0C0F93EA0C0F00F097
:10335000858090EA010F48BF42F4807240F4000C6F
:1033600041F400002CF07F4120F07F4000B5814205
:10337000A2EB03020FF2081CACEB504EC0F10000B0
:103380009EF800E04FEA4E0E00FB0EFC38BF4900ED
:103390004FEA2C1C02F5FA020CFB0EF34FEACE1E8C
:1033A0004FEA112C4FEAC1210EEB635E42EB224241
:1033B0000EFB0CFC4FEA1C5300FB03114FEA112CCF
:1033C0004FEA01310EFB0CFC4FEADC4C00FB0C1108
:1033D000C14228BF09184CEB03335DF804EB10EB36
:1033E000410143EBC250B2F57C0F38BF704729D57D
:1033F00012F0F00F1CBF00F1C04000F00040704719
:10340000008182838485868788898B8C8D8E8F91BD
:103410009293959697999A9C9D9FA0A2A3A5A7A8E1
:10342000AAACAEB0B2B3B5B7B9BCBEC0C2C5C7C90D
:10343000CCCED1D4D7D9DCDFE2E6E9ECF0F3F7FA71
:10344000FE0000004FEA400C0CF1807CBCF17E4F86
:1034500028BF7047B0F1C04000F08EB890EA010F6D
:103460000CEAD11348BF42F48072624538BF63450D
:1034700007D213F47F0F16D080EA010000F000405D
:10348000704710B500F032F8097EFC3E00F005B838
:1034900080EA010000F00040704780EA010000F07F
:1034A000004000F069B812F47F0F04BF0248704773
:1034B00080EA010000F060B80000C07F10F0004119
:1034C00048BF4042B0FA80F310FA03F2C3F19D0303
:1034D0000BD051EAC35101EB1220530638BF70479D
:1034E00000F1010008BF20F0010070470EF1020E4C
:1034F0002EF0030E5EF8044B244204D44FEA41023E
:10350000B2F17F4F11D84FEA4003B3F17F4F0CD88F
:103510000ED14FEAD07CB2F17F4F0CEB4C0C0CF18A
:10352000020C08BF4CEBD17C04E04FF0080C01E02A
:103530004FEAD17C0CEB4C0324FA03F404F00704AB
:10354000B4F1040C06D20EEB840CBDE810404CF034
:10355000010C6047DFE80CF0070802024FF0004062
:10356000A0F5800010BD0846420018BFD2F180725D
:1035700088BF00F0004010BDFF2141EAD050C005D7
:103580007047000090EA010F48BF81F000413FF50D
:1035900078AE421A04D882F00042A0EB0200114437
:1035A0004FEAD0524FF07F4C1CEA410FA2EBD153AF
:1035B00018BF9CEA026F4AD04FF0004C4CEA002042
:1035C0004CEA012121FA03FCB0EB0C0C0FD412F0F1
:1035D000FE0F36D05FEA4C001DD5001240EBC25002
:1035E00038BF70471CF03F0F18BF70470BE0A2F1C7
:1035F00001025FEA1C2040EBC25038BF70471CF04C
:103600007F0F18BF7047C3F12003994014BF401EBD
:1036100020F00100704780084FEA122308BF70476E
:10362000B0FA80FCA2EB0C02CCF1280C60FA0CF092
:1036300093EA122F04BF00EBC25070474FEAC370E9
:103640007047130A5FEADC1008BF7047F6E79CEA90
:10365000026F04D010EA5C0F08BF0020704710B55D
:10366000FFF744FF40DFF63E81F0004070470CF06A
:103670000F03092B08BF082000F059800A2B0BD03C
:10368000082B18BF704708BF1CF0400F0AD04FF03E
:1036900000004FF0000170471CF0400F18BF4FF0C2
:1036A000004070471CF0100F08D020F0704300F06D
:1036B0007F4242EAD3014FEA4370704700F0604016
:1036C00021F07F4242EA000201F07F4040EA72703E
:1036D00070474FF0FF0C4CF4E06C1CEA11531CBF18
:1036E0009CEA030C9445C2BFDA4201EB02517047D9
:1036F000002B0DD0BCF1000F0FD0002A01F00041CB
:10370000A4BF41F0E04141F07F614FF000007047FD
:1037100001F000414FF00000704750EA01334FF0D4
:103720009B0C18BF4CF0806C7FF456A870471CF4BB
:10373000801F11D01CF4E02F03D06FEACC31490078
:1037400070474FF04050EFF3008222F0704242EA9F
:10375000000282F3008870474FF0000070470102BA
:1037600002030405060708090A0B0C0D0E0F1010C2
:103770000000000000000000010203040607080921
:1037800000000000010203044FBB610567ACDD3F90
:10379000182D4454FB21E93F9BF681D20B73EF3F78
:1037A000182D4454FB21F93FE2652F227F2B7A3CF0
:1037B000075C143326A6813CBDCBF07A8807703CA9
:1037C000075C143326A6913CC4EB98999999C9BF1C
:1037D000711623FEC671BCBF6D9A74AFF2B0B3BF51
:1037E0009AFDDE522DDEADBF2F6C6A2C44B4A2BF11
:1037F0000D5555555555D53FFF8300922449C23F7D
:103800006E204CC5CD45B73F513DD0A0660DB13FB0
:10381000EB0D76244B7BA93F11DA22E33AAD903FC2
:1038200000000000000000004838000800000020F0
:10383000B80000002801000800390008B800002086
:10384000800B0000440100080000000000000000A0
:103850000000000000000000000000E04D62503F4A
:10386000000000C07493683F000000E051B89E3F24
:103870000000000000000000000000000000000048
:103880000000000000000000000000000000000038
:103890000000000000000000000000000000000028
:1038A000000000E04D62503F000000C07493683F8C
:1038B000000000E051B89E3F000000000000000042
:1038C00000000000000000000000000000000000F8
:1038D00000000000000000000000000000000000E8
:1038E00000000000000000000000000000000000D8
:1038F00001000000100000000000000000127A002B
:04000005080000ED02
:00000001FF
