:020000040800F2
:10000000980B0020A1010008232A000807240008FB
:10001000212A00083F1200087B2B00080000000086
:10002000000000000000000000000000272A000877
:100030004112000800000000252A0008292A0008B3
:10004000BB010008BB010008BB010008BB010008A0
:10005000BB010008BB010008BB010008BB01000890
:10006000BB010008BB010008BB010008BB01000880
:10007000BB010008BB010008BB010008BB01000870
:10008000BB010008BB010008BB010008BB01000860
:10009000BB010008BB010008BB010008BB01000850
:1000A000BB010008BB010008BB010008BB01000840
:1000B0008D2A0008BB010008BB010008BB01000835
:1000C000BB010008BB010008BB010008BB01000820
:1000D000BB010008BB010008BB010008BB01000810
:1000E000BB010008BB010008BB01000800F002F8DA
:1000F00000F047F80AA090E8000C82448344AAF17B
:100100000107DA4501D100F03CF8AFF2090EBAE878
:100110000F0013F0010F18BFFB1A43F0010318473B
:10012000BC3A0000DC3A0000103A24BF78C878C11D
:10013000FAD8520724BF30C830C144BF04680C60ED
:10014000704700000023002400250026103A28BF35
:1001500078C1FBD8520728BF30C148BF0B60704739
:10016000662903F0AC80002070471FB500F02AFB21
:1001700004000020002102F0C1FEE0601FBD10B5A8
:1001800010BD00F01FFC1146FFF7EFFF02F022FD4B
:1001900000F03DFC03B4FFF7F2FF03BC00F080FC6D
:1001A0000948804709480047FEE7FEE7FEE7FEE70B
:1001B000FEE7FEE7FEE7FEE7FEE7FEE70448054947
:1001C000054A064B704700008B2A0008ED00000826
:1001D00098050020980B0020980700209807002021
:1001E0000FB41CB5074B06AA7B44694600900598DE
:1001F00000F0CFFA0020694600F0DEFA1CBC5DF882
:1002000014FB0000CD0500002DE9F0474FF0000A77
:1002100089460446C0F820A02046E16888470028A7
:1002200076D0252806D0D4E901219047206A401CC9
:100230002062F1E7E168204600258847C4F81CA049
:1002400006460027C4F818A02A2E09D0304602F02E
:10025000B9FC38B304EB8708303EC8F8186019E0E1
:1002600059F8041B204604EB87029161E168884736
:10027000012F064618D1E069002820DA25F0200574
:100280001DE0D8F8180000EB800006EB4000303885
:10029000C8F818002046E1688847064602F092FC3C
:1002A0000028EED1012F0AD02E2E08D12046E16879
:1002B00088477F1C0646022F45F02005C4DBA06955
:1002C000002803DA404245F00105A061E80701D0AB
:1002D00025F01005B6B1A6F14100192802D8203644
:1002E00045F400654A463146204625604D46FFF7F5
:1002F00037FF58B1012806D0ED1D25F0070000F1A9
:10030000080989E704E005F1040985E730468AE732
:10031000206ABDE8F0874FF0000200B5134694460E
:100320009646203922BFA0E80C50A0E80C50B1F14D
:100330002001BFF4F7AF090728BFA0E80C5048BF61
:100340000CC05DF804EB890028BF40F8042B08BFFF
:10035000704748BF20F8022B11F0804F18BF00F8FB
:10036000012B704770477047704770472DE9FF4F6A
:100370000C461E464FF0FF378BB0D2E90001DDF886
:1003800060800A908A46C1F30A5505B93D460021AE
:1003900008464FF00000BAF1000F00F4400005DA03
:1003A00000EB80004FF4400101EA50004FEA905901
:1003B000B9F1010F00DDB9460A9850EA4A000ED0A3
:1003C00044F61050A5F2FF3545432F14B8F1000F45
:1003D0001ED07542291E1EDDC9F100021CE0B8F1D5
:1003E000010F4FF0000001D0302103E0F24305E09F
:1003F0002154401CB042FBDB304600220021215436
:100400000B99C1F80880C1E900200FB0BDE8F08F5A
:10041000BD1B6D1CDEE74A4600DA694206A800F003
:100420005BFA06AB93E8070003AB83E8070050468E
:100430000A9900F03CFB8DE80700A0F500501F383A
:1004400000900398002D0ADD42F21F014A4608443D
:10045000002303A90390684600F0A5FD09E0A0F57C
:1004600000504A461F38002303A90390684600F055
:10047000AFFD8DE807000004000C03D04FF0FF3003
:10048000410800E01046B8F1000F03D000220092AE
:1004900015461EE0751E05D400F098F930326255FD
:1004A0006D1EF9D5B3460122084302D000227F1CFD
:1004B00004E02078302801D100227F1E002A09970D
:1004C00084D01DE0112D07DA00F080F9303262553A
:1004D0006D1C50EA0102F5D1084302D00098C8B162
:1004E0000EE00021681E05E0235C625C6354225428
:1004F000401E491C8142F7DBAB46A81B401E0990F9
:10050000002004F80B000B98099AC0F80880C0E995
:10051000002B7AE711264FF0000857E72DE9F04F3E
:1005200088460446D21D22F0070191B0D1E90001AE
:10053000CDE90A0102F022FB02460B98C00F01D060
:100540002D2007E02068810701D52B2002E0202123
:1005500001EAC000032A099001D0072A05DB0346FF
:100560004146204600F078F90BE12078800601D55D
:10057000E06900E00620B8F1650F814606D0B8F1C9
:10058000660F18D0B8F1670F70D131E00020B9F1D3
:10059000110F009001DB112301E009F101030AAA08
:1005A00001A90CA8FFF7E2FEDDE90C70002609F1B5
:1005B0000105834647E001204B4600904FF000477D
:1005C0000AAA01A90CA8FFF7D1FEDDE90DB00C992C
:1005D0005D46002610B909F101000D18B9EB0500C0
:1005E00003D4C0F1FF3609F10105A5EB09002BE0AA
:1005F000B9F1010F01DA4FF001090020B9F1110F33
:100600000090484601DD112300E003460AAA01A933
:100610000CA8FFF7ABFEDDE90C704D4600268346C3
:10062000207800070AD4AB4500DA5D4601A8012D09
:1006300004DD411911F8011C302907D04F4502DAB9
:1006400017F1040F04DA012082460FE06D1EEEE779
:10065000002F02DCED1B3E4403E0781CA84200DDC5
:100660007D1CB81B00F1010A4FF0004720780007FD
:1006700003D4AA4501DB4FF0FF3A0021B7F1004F48
:100680000DF143088DF8431024D002202B23002FB6
:1006900001DA7F422D230A21021EA0F1010000DCB5
:1006A0005FB197FBF1FC97FBF1F201FB1C7C174655
:1006B0000CF1300C08F801CDEEE7A8F10100037051
:1006C0002188090501D5452100E06521A0F1010837
:1006D00000F8011C09980FA9A1EB0807FF1D00B144
:1006E0000120411901EBEA70A1693844081A401E43
:1006F000A0612078C00602D42046AFF3008009989C
:1007000028B1D4E901219047206A401C206220785A
:10071000C00622D52046AFF300801EE0002E04DB89
:10072000B34502DD01A8805D00E03020D4E901215D
:100730009047206A401C2062761CAAF101005FEA03
:10074000000A0AD100F03EF8C0680168405CD4E9B4
:1007500001219047206A401C2062281EA5F1010556
:10076000DCDC07E0D4E9012118F8010B9047206A8E
:10077000401C2062381EA7F10107F3DC2046AFF3CE
:100780000080032011B041E601694A1C026108782B
:10079000704700B58FB0CDE90131002105910549C1
:1007A0007944CDE9031011466846FFF72DFD0FB0DF
:1007B00000BD0000E5FFFFFF0A6802F8010B0A60B8
:1007C00070470000004870475405002030B5B0F174
:1007D0000A024FEA900E71F100034EEA817EB0EBFF
:1007E0000E0061EB91014FEA101E4EEA017E10EB04
:1007F0000E0041EB11114FEA102E4EEA016E10EB84
:100800000E0041EB11214FEA104E4EEA014E10EB63
:100810000E0041EB1141401841F100014FEAD000B8
:1008200040EA41704FEAD10110EB80054FEA8104A4
:1008300044EA907444EB01046D1944EB0404521B28
:10084000A3414FF0000348BF0A3200D530BD401C21
:1008500041F1000130BD00002DE9F0411F46044682
:1008600003260168072A01F4006004DB08B116A51D
:1008700005E016A503E008B115A500E015A521F0D7
:1008800010002060A069C01EA0610FB1401EA061D1
:100890002046AFF300804FB1D4E90121384690479C
:1008A000206A401C2062C01C206206E0206AFAE731
:1008B000D4E9012115F8010B9047761EF8D22046A5
:1008C000AFF30080BDE8F0814E414E006E616E00D6
:1008D000494E4600696E66002DE9F047814616468E
:1008E0008AB0354878440DC88DE80D003248784408
:1008F000801C03AC0DC884E80D0041F69B30084411
:10090000372190FBF1F290FBF1F5A5F1800501FB99
:1009100012041B3C02D56442012000E00020DFF8F5
:1009200098A080460027FA44AAF1BE0A0EE0E0072C
:100930000AD03246684607EB470101230AEB8101E2
:1009400000F046FB8DE8070064107F1C002CEED100
:10095000194F7F44AE3F19E0E80715D007EB0410AC
:100960000DF1180A90E80E008AE80E00C068F04207
:1009700001D1981908903246012306A903A800F076
:1009800027FB03AB83E807006D10641C002DE3D147
:100990004FF0010332466946B8F1000F03A802D0B8
:1009A00000F001FB01E000F013FBC9E90001C9F808
:1009B00008200AB0BDE8F087DC320000004870472C
:1009C000340500207546FFF7F9FFAE46050069467D
:1009D000534620F00700854618B020B5FFF7EEFB20
:1009E000BDE820404FF000064FF000074FF0000830
:1009F0004FF0000B21F00701AC46ACE8C009ACE8B1
:100A0000C009ACE8C009ACE8C0098D46704710B514
:100A10000446AFF300802046BDE81040FFF7BABBA4
:100A20004FF0013C50F8042B51F8043B9A4221D17D
:100A3000A2EB0C03934313EACC1317D150F8042B09
:100A400051F8043B9A4215D1A2EB0C03934313EAED
:100A5000CC130BD150F8042B51F8043B9A4209D126
:100A6000A2EB0C03934313EACC13DBD04FF000004E
:100A7000704700BFD01A01BAB1FA81F101F0180134
:100A800022FA01F0CB40C1F12001DBB2C0B2C01AA2
:100A90002CFA01F3D11A914311EAC311E6D1704740
:100AA00001491820ABBEFEE72600020070475FEA4E
:100AB000400C08BF91F0000F4FEA8C234FEAC1228F
:100AC00043EA51514FEA1C5018BF00F5F0404FEA7D
:100AD000300018BF41F000415FEA6C5C00F02980F3
:100AE000BCF1FF3F08BF40F080407047130C06BFC9
:100AF00012044FF0100C4FF0000C130E04BF120242
:100B00000CF1080C130F04BF12010CF1040C930F2D
:100B100004BF92000CF1020CD30F04BF52000CF181
:100B2000010C11464FF00002A0F11F00A0EB0C00D9
:100B3000704711F0004F08BF704731F000413FF49B
:100B4000D5AF0B0C06BF09044FF0100C4FF0000C92
:100B50000B0E04BF09020CF1080C0B0F04BF0901B6
:100B60000CF1040C8B0F04BF89000CF1020CCB0FAD
:100B700004BF49000CF1010CCCF12003A0EB0C00E8
:100B800022FA03F302FA0CF241EA030100F1010038
:100B9000704720F07F4C80EA030023F07F47ACEBE6
:100BA000070303F57C5300F0004003F1FF032DE938
:100BB00080494FEA154B09B44FEA144325EA0B4E1E
:100BC00024EA03480FF2042606EB132749083E786F
:100BD0005FEA320203FB0667C7F5000707FB06F66C
:100BE0004FEA54374FEAD64606F1020607FB066C79
:100BF000CCF1005C4FEA1C472CEA074C07FB06F4DB
:100C00000CFB06F504EB15464FEA961634BF0020A0
:100C10004FF000404FEAD13706FB07FC4FEA1C4C6F
:100C20000CFB0BF7D21B03FB0CF761EB07010CFB72
:100C30000EF7B0EB074072EB17420CFB08F734BF1E
:100C4000A2EB0742B2EB074261EB17414FEA0C44BB
:100C50004FEA910706FB07FC4FEA1C4C0CFB0BF715
:100C6000B0EBC74072EB573203FB0CF734BFA2EB7B
:100C7000C742B2EBC74261EB57310CFB0EF7B0EB4A
:100C8000C70072EB57720CFB08F734BFA2EBC70228
:100C9000B2EBC70261EB5771039F4FEA816141EAF2
:100CA000921104EBCC044FEAD1374FEA826206FB83
:100CB00007FC42EA90124FEA80604FEA1C4C0CFBA2
:100CC0000BF7D21B03FB0CF761EB07010CFB0EF7D4
:100CD000B0EB074072EB17420CFB08F734BFA2EBF6
:100CE0000742B2EB074261EB17414FEA8C554FEADE
:100CF000910704EB9C2406FB07FC4FEA1C4C0CFB01
:100D00000BF7B0EBC74072EB573203FB0CF734BF65
:100D1000A2EBC742B2EBC74261EB57310CFB0EF7B7
:100D2000B0EBC70072EB57720CFB08F734BFA2EBB5
:100D3000C702B2EBC70261EB577115EB4C254FEAC6
:100D4000816141EA92114FEA82624FEAD13742EA69
:100D5000901206FB07FC44F100044FEA80604FEA62
:100D60001C4C0CFB0BF7D21B03FB0CF761EB0701D0
:100D70000CFB0EF7B0EB074072EB17420CFB08F7C9
:100D800034BFA2EB0742B2EB074261EB174115EB10
:100D90001C154FEA813141EA92414FEA823242EA20
:100DA00090424FEA80304FEA0C7644F1000448EA62
:100DB00003434EEA0B484FF0000EB2EB080C71EB08
:100DC000030724BF624639464EEB0E0E4FF0000B70
:100DD0000018524149414BEB0B0BB2EB080C71EB85
:100DE00003077BF1000B24BF624639464EEB0E0E23
:100DF0004FF0000B0018524149414BEB0B0BB2EB8B
:100E0000080C71EB03077BF1000B24BF62463946E7
:100E10004EEB0E0E51EA020718BF46F0010616EB24
:100E20000E7655F1000254F1000103D5BDE88901A9
:100E3000BDE80088BDE88901BDE80048B619524107
:100E400041EB0101A3F10103704780807F7E7D7C2F
:100E50007B7A7978777676757473727171706F6E4C
:100E60006E6D6C6C6B6A6A696868676666656464F7
:100E7000636362616160605F5F5E5E5D5D5C5C5B81
:100E80005B5A5A59595858575756565555555454F0
:100E9000535352525251515050504F4F4F4E4E4D4E
:100EA0004D4D4C4C4C4B4B4B4A4A4A49494948489A
:100EB00048474747474646464545454444444443DA
:100EC00043434342424242414141002B9C4630D47D
:100ED00077002BD01CB54FEA370703B44FF0100052
:100EE0004FF01001BAF1000F06D0BCF1000FDCBFCB
:100EF00040F0080040F008014FF000000FBCBDE8D2
:100F000010400BF1010BBBF1010F08BF5FEA17079F
:100F100022BF12F1010211F101014FF0004143F132
:100F2000000300F0004043EA00007047F9D357087F
:100F3000D0E746EA064613F1400F4FEA16461FDD9A
:100F400013F1200FDFBF16430A46002120335B4216
:100F5000BED0C3F1200746EA064602FA07F74FEA79
:100F6000164646EA0706C3F1200722FA03F201FA01
:100F700007F721FA03F14FF0000342EA0702A7E75F
:100F800046EA020646EA06464FEA164646EA0106E1
:100F9000BCBF46EA0646360C4FF000034FF0000295
:100FA0004FF0000194E72DE9804C9A46934670B4C7
:100FB00091E8380007C831EA400C48BF34EA430CD6
:100FC00003D5FFF7E6FDFFF780FFF0BCBDE8008C1E
:100FD0002DE9804C9A46934670B491E8380007C8D2
:100FE00010F0804F08BF13F0804F03D100F005F8D8
:100FF000FFF76BFFF0BCBDE8008C20F07F4780EA74
:10100000030023F07F4C07EB0C03A3F57C5300F0A7
:101010000040A3F1FE0392F0000F00F0B38095F0C2
:10102000000F00F077802DE901494FEA11404FEAA7
:10103000144621EA004800FB06FC24EA064708FBA8
:1010400006F607FB08F800FB07F718EB06484CEB21
:10105000164C4FEA124B18EB07484FEA15464CEB7B
:10106000174022EA0B4E0BFB06FC25EA06470EFB57
:1010700006F607FB0EFE0BFB07F71EEB064E4CEBCE
:10108000164C4FF000061EEB074E4CEB174B18EBBF
:101090000B0840F1000018EB0E0B58EB000840F174
:1010A00000008F1A4FF000013CBFC943661B14BFFC
:1010B000B5EB040C00213CBFC943F61B4FEA1744B3
:1010C0004EEA8E0E27EA04454FEA1C4704FB0762EE
:1010D0002CEA074C05FB07F70CFB05F604FB0CFCA0
:1010E00016EB074642EB174216EB0C4642EB1C424E
:1010F0001BEB060658EB0202414146EA9E0601D56B
:10110000BDE80189B619524141EB0101A3F1010388
:10111000BDE801894FEA14454FEA114724EA054624
:1011200021EA074C05FB07F406FB07F70CFB06F169
:1011300005FB0CFC11EB074144EB17444FEA124747
:1011400011EB0C4144EB1C4422EA074C05FB07F26F
:1011500006FB07F70CFB06F605FB0CFC16EB074637
:1011600042EB174216EB0C4642EB1C456A1854F151
:10117000000148BF7047B619524141EB0101A3F18C
:101180000103704795F0000F37D04FEA11424FEA44
:10119000144721EA024624EA074C02FB07F106FB4A
:1011A00007F70CFB06F402FB0CFC14EB074441EBC5
:1011B00017414FEA154714EB0C4441EB1C4125EA5B
:1011C000074C02FB07F506FB07F70CFB06F602FBD4
:1011D0000CFC16EB074645EB174516EB0C4645EBAA
:1011E0001C42121951F1000148BF7047B619524113
:1011F00041EB0101A3F1010370474FEA14454FEAA7
:10120000114724EA054621EA074C05FB07F106FBD6
:1012100007F70CFB06F24FF0000605FB0CFC12EB87
:10122000074241EB174112EB0C4251EB1C4148BF06
:101230007047921841EB0101A3F101037047FEE7EB
:10124000704772B6FEE7000070B5044600F0FEF885
:101250000546601C02D004480078044400F0F6F80B
:10126000401BA042FAD370BD100000202DE9F84FBA
:10127000DFF8B8910024A9F1040B23460F2709F1E8
:10128000040AABF1040EC9E00125A5402A40AA4298
:101290007DD1674ED1F804C0ACEB0608B44532D01E
:1012A00014DCBCF1030F3AD009DCBCF1000F2AD0EA
:1012B000BCF1010F1CD0BCF1020F31D11DE0BCF11B
:1012C000110F17D0BCF1120F2AD119E0B8F5881F01
:1012D00019D006DCB8F5803F15D0B8F5801F1FD1B6
:1012E00011E0B8F5001F0ED0B8F5041F18D10AE0C0
:1012F000CB6815E0CB681B1D12E0CB6808330FE00C
:10130000CB680C330CE08B682BB1012B4FF008033A
:1013100003D0456104E0042302E0056100E00023FE
:10132000FF2A01D8064601E000F104064FEA8405D1
:1013300001D9A5F12005D6F8008007FA05FC28EAB6
:101340000C0803FA05F548EA0508C6F800804D6860
:10135000ED0062D5374DAE6946F00106AE61AD696C
:1013600024F0030605F001050095334D06EB050C4E
:10137000DCF80850A607360F07FA06F825EA080534
:10138000DFF8B880404503D14FF0000817E044E093
:10139000DFF8AC80404502D14FF001080FE0DFF8E4
:1013A000A480404502D14FF0020808E0DFF89880A1
:1013B000404502D14FF0030801E04FF0040808FA5D
:1013C00006F848EA0508CCF808804D68D9F80060AE
:1013D000ED024D4601D5164300E096432E604D6860
:1013E000DAF80060AD02554601D5164300E0964399
:1013F0002E604D68DBF80060AD035D4601D51643F5
:1014000000E096432E604D68DEF80060ED037546FF
:1014100001D5164300E096432E60641C0D682A46F1
:10142000E5407FF431AFBDE8F88F000008040140CB
:1014300000001110001002400000014000080140AF
:10144000000C014000100140001401400148806878
:10145000704700001000002070B5040025D094F8FB
:101460003D00002520B984F83C50204600F07EFA6B
:10147000242084F83D002068016821F0010101600A
:101480002068016841F4004101602068016821F48E
:101490000041016000F0C6FB4D4A6168914201D8ED
:1014A0004C4900E04C49884201D2012070BD4B49B3
:1014B0002368B0FBF1F15E6826F03F060E435E60E4
:1014C0006368934206D94FF4967359434FF47A7385
:1014D000B1FBF3F12368491C1E6A26F03F06314335
:1014E00019626168914210D84900401EB0FBF1F2C8
:1014F000521CC2F30B02042A01D2042022E0B0FBEA
:10150000F1F0401CC0F30B001CE0A268F2B301EB49
:10151000C10303EB0116431EB3FBF6F35B1C43F45C
:1015200080431B0549D092B301EBC10202EB0111CC
:10153000401EB0FBF1F0401CC0F30B0040F48040B3
:1015400040F400402168CA694CF6FF739A43104387
:10155000C861D4E9071001432068026822F0C00284
:1015600011430160D4E9030101432068826848F215
:10157000FF339A4311438160D4E905010843216890
:10158000CA6822F0FF021043C86001E00EE016E0D6
:101590002068016841F0010101602564202084F881
:1015A0003D00256384F83E50002070BD01EB4106EC
:1015B000431EB3FBF6F35B1CB3E70120C2E701EB6C
:1015C0004101401EB0FBF1F0401CC0F30B00B7E737
:1015D000A086010080841E0000093D0040420F00EB
:1015E0002DE9FF4F83B00025DDE910799A46934637
:1015F0000446DDF848800095FFF728FF064694F87A
:101600003D0020287CD119230122884920460096DC
:1016100001F010F80028F5D194F83C0001286FD0B3
:10162000012084F83C0020680168C90703D10168E3
:1016300041F0010101602068016821F4006101604E
:10164000222084F83D00402084F83E002564676233
:10165000A4F82A90608D20857548E062CDE9008667
:1016600053465A462046049900F0E6FE00287CD1F5
:10167000208DDFF8C091202768B1012814D00228FE
:10168000206801681ED041F48061016020684169D2
:1016900080690090BCE0206841698169009101681F
:1016A00041F400710160B3E02068016821F48061B9
:1016B000016072B62068416981690091016841F456
:1016C00000710AE041F40061016072B6206841696E
:1016D00081690091016821F48061016062B697E040
:1016E000032865D801280CD0022843464FF0000299
:1016F0004946204600960BD000F09CFFA8BB0CE0AA
:1017000091E032464146204601F03AF868BB72E06B
:1017100000F090FF48BB72B633E02068016821F406
:101720008061016072B620680069616A0870606A51
:10173000401C6062208D401E2085608D401E6085AB
:101740003D4846F2A8110068B0FBF1F0C0EBC000C4
:1017500000EB80000090401E009007D02068406998
:10176000C04340070DD50098F5E727E044F8305F07
:101770006773A573206940F02000206162B625736D
:101780001CE02068016841F4007101602068006974
:10179000616A0870606A401C6062218D491E218563
:1017A000618D491E618562B621680969017026E074
:1017B00032464146204600F0E3FF18B1012007B051
:1017C000BDE8F08F20680069616A0870606A401C9B
:1017D0006062208D401E81B22185608D401E608533
:1017E00020684269D243520712D4032903D1016809
:1017F00021F48061016020680069616A0870606A94
:10180000401C6062208D401E2085608D401E6085DA
:10181000208D00287FF464AF84F83D7084F83E503A
:1018200084F83C50CBE70220C9E70000020010001A
:101830000000FFFF040001001C0000202DE9FF4F05
:1018400083B09A46DDE9119793460446DDF840805F
:10185000FFF7FCFD054694F83D0020287FD11923B1
:10186000012240492046009500F0E4FE002876D190
:1018700094F83C00012872D0012084F83C002068D4
:101880000168C90703D1016841F0010101602068C6
:10189000016821F400610160212084F83D004020AE
:1018A00084F83E0000262664C4F82480A4F82A9018
:1018B000608D20852C48E062CDE9007553465A467C
:1018C0002046049900F036FE70B930E02A463946C9
:1018D000204600F08DFF58B1206C042804D1206808
:1018E000016841F400710160012007B0BDE8F08F8C
:1018F000606A216800780861606A401C6062218D1E
:10190000491E89B22185628D521E62852268536903
:10191000DB435B070BD469B100781061606A401C3F
:101920006062208D401E2085608D401E6085208D68
:101930000028CBD12A463946204600F04FFE002829
:10194000CAD154F83D0B016841F4007101602020B8
:1019500004F81E09E67766770020C6E7FFE7022055
:10196000C3E70000020010000000FFFF10B586B0C2
:101970000021009101910291039100680F49884272
:101980001AD10F4CA06940F00800A061A069694617
:1019900000F008000490C020009012200190032065
:1019A00003900848FFF762FCE06940F40010E06132
:1019B000E06900F40010049006B010BD005400402F
:1019C00000100240000C0140024881680278114476
:1019D0008160704710000020074810B5016841F091
:1019E00010010160032000F075F80F2000F006F8E8
:1019F00000F024F8002010BD0020024070B50D4D0D
:101A000004464FF47A712878B1FBF0F00A4909686E
:101A1000B1FBF0F000F0CCFA48B9102C07D200224C
:101A20002146501E00F036F800206C6070BD012089
:101A300070BD0000100000201C0000200C4808B5FC
:101A4000816941F001018161816901F00101009129
:101A5000C16941F08051C161C06900F080500090BF
:101A60000448416821F0E06141F08061416008BDB7
:101A70000010024000000140002809DB00F01F02B6
:101A8000012191404009800000F1E020C0F80011E0
:101A900070470000F0B40E4B1B680C46C3F30223E2
:101AA000C3F10705042D00D90425191D072901D20A
:101AB000002300E0DB1E012606FA05F1491E214045
:101AC00099409E40761E16403143F0BC01F06AB842
:101AD0000CED00E0064900F0070208684FF6FF032E
:101AE000184040EA0220034A104308607047000093
:101AF0000CED00E00000FA052DE9F0470F46050067
:101B000061D0434E306800F00700B84209D2306817
:101B100020F0070038433060306800F00700B8421A
:101B200051D128683B4C810712D5400703D5606826
:101B300040F4E06060602878000703D5606840F4F6
:101B4000605060606068A96820F0F0000843606041
:101B50002878C00728D06868012810D0216802289A
:101B600010D0890700292EDA616821F003010143B2
:101B70006160FFF76BFC804641F288390DE0216817
:101B80008903EFE78901EDE7FFF760FCA0EB0801AF
:101B9000494502D90320BDE8F0876068696800F014
:101BA0000C00B0EB810FEFD1306800F00700B842B5
:101BB0000BD9306820F0070038433060306800F0FF
:101BC0000700B84201D00120E5E72878400705D595
:101BD0006068E96820F4E0600843606028780007E6
:101BE00006D56068296920F4605040EAC100606051
:101BF00000F028F86168084AC1F30311515CC8403D
:101C00000649086006480068FFF7F8FE0020C2E7B2
:101C10000020024000100240303B00081C00002061
:101C2000140000200448054900684968044AC1F3CB
:101C30000221515CC84070471C0000200010024087
:101C4000403B00080E4A51680E4801F00C03042B7B
:101C500011D0082B0FD10C48C1F38343C903C05CDA
:101C60000AD55168084AC1F34041921E515C054AA9
:101C70005043B0FBF1F070470449484370470000FF
:101C80000010024000127A00203B000800093D00CD
:101C90002DE9F84F040070D02078C04DC00749D01E
:101CA0006868C0F38100012807D06868C0F381002C
:101CB000022809D16868C00306D52868800339D591
:101CC00060680028E7D035E06068B0F5803F0BD051
:101CD00010B1B0F5A02F11D0286820F48030286012
:101CE000286820F4802002E0286840F480302860D2
:101CF000606890B1FFF7AAFB06460AE0286840F446
:101D000080202860F0E700BFFFF7A0FB801B64285D
:101D100073D828688003F7D50CE0FFF797FB0646D9
:101D200005E000BFFFF792FB801B6428F0D828680D
:101D30008003F7D420789A4E80074FF001094FF0C6
:101D4000000839D5686810F00C0F07D06868C0F338
:101D50008100022809D16868C00306D4286880077A
:101D600014D52069012808D110E02069B0B1C6F867
:101D70000090FFF76BFB074605E00AE1FFF766FB03
:101D8000C01B0228C4D828688007F7D52868616975
:101D900020F0F80040EAC10028600DE0C6F800809D
:101DA000FFF754FB074604E0FFF750FBC01B022877
:101DB00023D828688007F7D4207800072CD57948E5
:101DC000A169D9B1C0F80090FFF740FB074604E0D5
:101DD000FFF73CFBC01B02280FD8686A8007F7D5C5
:101DE00071484FF4FA510068B0FBF1F0009000BF69
:101DF0000098411E0091FAD20EE080E0C0F8008009
:101E0000FFF724FB074604E0FFF720FBC01B022876
:101E100075D8686A8007F7D42078400760D5E869EC
:101E20000027C00008D4E86940F08050E861E86904
:101E3000012700F0805000905C480168C90513D468
:101E40000168834641F480710160FFF7FFFA824622
:101E500006E000BFFFF7FAFAA0EB0A0064284ED8AC
:101E6000DBF80000C005F5D5E06801280AD008B10C
:101E7000052813D0286A20F001002862286A20F083
:101E8000040002E0286A40F001002862E06841F2A4
:101E9000883B98B1FFF7DAFA82460BE0286A40F0F7
:101EA00004002862EEE700BFFFF7D0FAA0EB0A01BA
:101EB00059455AD8286A8007F6D50CE0FFF7C6FACC
:101EC000824605E0FFF7C2FAA0EB0A0159454CD85B
:101ED000286A8007F6D41FB1E86920F08050E861D5
:101EE000E06988B36968C1F38101022944D00228FE
:101EF000C6F8608004D0FFF7A9FA044638E034E061
:101F0000FFF7A4FA074604E0FFF7A0FAC01B022877
:101F10002BD828688001F7D4206AB0F5803F05D11E
:101F20006868A16820F4003008436860D4E90801BB
:101F30000843696821F4741108436860C6F860902A
:101F4000FFF784FA044606E025E000BFFFF77EFABB
:101F5000001B022809D828688001F7D51BE000BFC4
:101F6000FFF774FA001B022802D90320BDE8F88F9E
:101F700028688001F4D40EE00128F7D06868226A4E
:101F800000F48031914204D1616A00F470108842FB
:101F900001D00120EAE70020E8E70000001002403D
:101FA00000004242800442421C00002000700040B9
:101FB00010B5401EB0F1807F01D3012010BD4FF05D
:101FC000E02460610F21601700F0ECFD0020A061AB
:101FD00007202061002010BD7047704770B590F851
:101FE0003C20012A26D0012480F83C40022280F8BF
:101FF0003D2003685A689D6822F070060A683243E3
:102000005A600D4B02689A4208D0B2F1804F05D059
:102010000A4B9A4202D00A4B9A4204D1496825F0F1
:1020200080031943916080F83D40002180F83C1006
:10203000084670BD022070BD002C01400004004025
:102040000008004010B5040003D094F83D0010B122
:1020500007E0012010BD002084F83C00204600F07D
:102060001FF8022084F83D00211D206800F014FDB7
:10207000012084F8460084F83E0084F83F0084F88C
:10208000400084F8410084F8420084F8430084F85A
:10209000440084F8450084F83D00002010BD000095
:1020A00008B50068B0F1804F12D10A48C16941F00B
:1020B0000101C161C069002200F0010000901146D9
:1020C0001C20FFF7E7FCBDE808401C20FFF7D4BC4C
:1020D00008BD00000010024090F83D10012901D019
:1020E00001207047022180F83D100168CA6842F063
:1020F0000102CA6000680B49884208D0B0F1804FE5
:1021000005D00949884202D00849884204D1816833
:1021100001F00701062903D0016841F001010160C7
:1021200000207047002C01400004004000080040DF
:1021300070B5044690F83C000025012817D0012610
:1021400084F83C60022084F83D002068826822F018
:10215000770222F47F4282600868502838D00DDC74
:1021600020284FD005DC90B3102811D14AE002207E
:1021700070BD302846D040280AD13BE060282FD0DF
:1021800070280DD0B0F5805F03D0B0F5005F12D09D
:10219000012584F83D60002084F83C00284670BD8D
:1021A000CB68D1E90121206800F0B2FC2068816889
:1021B00041F0770109E0CB68D1E90121206800F006
:1021C000A7FC2068816841F480418160E1E719E063
:1021D000CA684968206800F0ADFC5021206806E01C
:1021E000CA684968206800F0B6FC6021206800F0E9
:1021F00099FCCEE7CA684968206800F09BFC402142
:102200002068F4E7226801461046F0E770472DE9A0
:10221000F04104460068C66805694FF00007A90749
:1022200013D5B10711D5F91E01610120207720686F
:1022300080698007204602D0FFF7E8FF04E000F045
:102240007EF8204600F07CF82777680716D57007DF
:1022500014D521686FF004000861022020772068FF
:10226000806910F4407F204602D0FFF7CFFF04E0E2
:1022700000F065F8204600F063F82777280715D5A9
:10228000300713D521686FF008000861042020771B
:102290002068C0698007204602D0FFF7B7FF04E03E
:1022A00000F04DF8204600F04BF82777E80616D5E9
:1022B000F00614D521686FF010000861082020771F
:1022C0002068C06910F4407F204602D0FFF79EFFCF
:1022D00004E000F034F8204600F032F82777E807F1
:1022E00008D0F00706D021686FF001000861204691
:1022F00000F028F8280608D5300606D521686FF0CA
:10230000800008612046FFF767FE680608D5700662
:1023100006D521686FF040000861204600F072F891
:10232000A8060AD5B00608D521686FF0200008611C
:102330002046BDE8F041FFF750BEBDE8F081704790
:102340007047000070B50068B0F1804F40D121495E
:10235000214800F0C1FA1F4C20A104F15800D4E933
:102360000223FDF73DFF0021084600F025FD1E4D2C
:10237000012304F15800D5E9001200F0A9FDD4E9C9
:1023800004231AA104F15800FDF72AFF0A210020B6
:1023900000F012FDD5E90012012304F1580000F00D
:1023A00097FDD4E9062314A104F15800FDF718FFA6
:1023B0001421002000F000FDD5E90012012304F1F2
:1023C000580000F085FDBDE87040034800F0FABCFD
:1023D00070BD0000200000209800002041783A25C0
:1023E0002E326667000000000000002041793A2587
:1023F0002E32666700000000417A3A252E32666769
:10240000000000007047FEE701684A69D2435205A8
:102410000FD46FF480624A61002140F8301F2022FF
:1024200042738173026942F0040202610173012068
:1024300070470020704700002DE9F84F04460068FF
:1024400089460B9D01689846174641F480610160FA
:102450002068016841F48071016000954FF0011B14
:102460000022594620460A9B00F0E4F84FF4007A17
:1024700040B120680068C00501D5C4F840A0032021
:10248000BDE8F88F216809F0FE0008612B46284955
:1024900020460A9A00F016F9F0BB2068416980696D
:1024A00000902A4620460A9900F0A2F940B1206C1B
:1024B00004283AD12068016841F40071016034E0D9
:1024C000FEB2B8F1010F09D02168380A08612A4626
:1024D00020460A9900F08CF90028E8D120680661AE
:1024E0002A4620460A9900F083F90028DFD12068A7
:1024F000016841F480710160009500225946204630
:102500000A9B00F097F80028B3D1216809F0FF007A
:1025100040F00100086100E007E02B460449204636
:102520000A9A00F0CFF80028AAD00120A8E70000FE
:10253000020001002DE9F843044600680D46DDE97C
:10254000089701689846164641F4807101604B4631
:1025500000224FF001112046009700F06BF848B1BF
:1025600020680068C00502D54FF400702064032085
:10257000BDE8F883216805F0FE0008613B464A4645
:102580001549204600F09EF888B9206841698069A5
:1025900000903A464946204600F02AF948B1206C9E
:1025A000042804D12068016841F400710160012011
:1025B000DEE7F5B2B8F1010F09D02168300A0861F1
:1025C0003A464946204600F013F90028E7D1206832
:1025D00005610020CCE700000200010070B516463E
:1025E0000D4604461EE02046FFF70EFF08B101200D
:1025F00070BD681C16D0FEF729FF801BA84200D8CA
:1026000085B920684069C04340070BD5002044F8D5
:10261000300F20216173A073216941F020012161F5
:102620002073E4E720684069C0434007DBD4002002
:1026300070BD00002DE9F047984617460D46044648
:10264000C1F30746DDF820902AE000BFB8F1FF3F54
:1026500026D0FEF7FBFEA0EB0901414502D8B8F1F8
:10266000000F1DD12068012E16D0806925EA0000D8
:102670000004000C12D00020B84211D1002044F810
:10268000300F20216173A073216941F02001216185
:1026900020730120BDE8F0874069E7E70120EBE700
:1026A0002068012E0AD0806925EA00000004000C91
:1026B00006D00020B842C9D00020EBE74069F3E71C
:1026C0000120F7E72DE9F047984616460D460446E7
:1026D0004FF000094FF0200AC1F3074723E02068BC
:1026E0004069C043400515D42068016841F4007179
:1026F000016021686FF480604861C4F8309084F80C
:102700003DA084F83E90216C41F00401216484F8DE
:102710003C9021E0701C06D0FEF798FEA0EB08006C
:10272000B04203D816B1012F1FD021E02068012F3D
:1027300015D0806925EA00000004000C18D000BF05
:1027400044F8309F84F80DA084F80E90216941F080
:102750002001216184F80C900120BDE8F0874069D8
:1027600025EA00000004000CEAD12068406901E07D
:102770002068806925EA00000004000CAFD1ECE776
:102780002DE9F041002590460E460446202728E01A
:102790004069C043C0060CD454F8301B6FF01000E1
:1027A000486144F810596777A577206A2062257739
:1027B00014E0FEF74BFEA0EB0800B04200D886B94B
:1027C00020684069C04340060BD544F8305F67730A
:1027D000A573206940F02000206125730120BDE829
:1027E000F08120684169C9434906D1D40020F6E749
:1027F00070B516460D4604461EE02046FFF704FE5F
:1028000008B1012070BD681C16D0FEF71FFE801BAA
:10281000A84200D885B920684069C04300060BD59E
:10282000002044F8300F20216173A073216941F02A
:10283000200121612073E4E720684069C04300065D
:10284000DBD4002070BD2DE9F04186B08046012523
:1028500004A8CDE9000564242B467522D0210294FA
:102860004046FEF7BDFE9DF81000702803D0012001
:1028700006B0BDE8F081002703AE8DF80C7000961D
:10288000CDE9015401236B22D0214046FEF7D6FF4B
:1028900007208DF80C000096CDE901540123192280
:1028A000D0214046FEF7CAFF8DF80C700096CDE9A6
:1028B000015401231C22D0214046FEF7BFFF8DF8B2
:1028C0000C700096CDE9015401231B22D021404613
:1028D000FEF7B4FF0020CBE7F0B585B00C466423CB
:1028E000062203A98DE80E0001233B22D021FEF72A
:1028F00077FEBDF80C0040BA00B22080BDF80E1083
:1029000049BA0EB26680BDF8101049BA0DB2A58062
:1029100000F06AFC6FF00D073A4600F004FDC4E9D0
:102920000201304600F060FC3A4600F0FCFCC4E9CD
:102930000401284600F058FC0022034B00F0FCFA8A
:10294000C4E9060105B0F0BD0029CC40094808B52E
:10295000816941F020018161816901F020010091CC
:10296000816941F008018161806900F008000090F0
:1029700008BD0000001002400D4810B50B49016071
:102980000C49416000214FF480428160C0E903128C
:1029900041618161C1610162FEF75EFD002803D0E3
:1029A000BDE81040FEF74DBC10BD000000540040D3
:1029B00098000020A086010010B586B000241748BA
:1029C000009401940294039404944FF08041059480
:1029D000016041F61F41C0E9011442F21071C0E9E3
:1029E000031480218161FFF72DFB08B1FEF729FC5C
:1029F0004FF48050009069460848FFF799FB08B1F2
:102A0000FEF71FFC049404A904480594FFF7E6FAB6
:102A1000002801D0FEF715FC06B010BDEC00002028
:102A2000FEE7FEE770477047FEF7CEBF30B58FB0C8
:102A300028216846FDF76FFC14210AA8FDF76BFCFE
:102A400001210804CDE9001000240294022504911C
:102A5000CDE907504FF4E01009906846FFF718F9E8
:102A600008B172B6FEE70F20CDE90A054FF4806089
:102A7000CDE90C4002210AA80E94FFF73DF800288A
:102A800001D072B6FEE70FB030BD70470148FFF7C6
:102A9000BEBB0000EC000020F0B50268194B1A4CD8
:102AA0001A4D4FF08047984205D0B84203D0A0425B
:102AB00001D0A84203D122F070064A6832439842FE
:102AC00005D0B84203D0A04201D0A84203D122F4DD
:102AD0004074CA6822434C6922F08002224302609B
:102AE0008A68C2620A688262984201D109690163F8
:102AF000012141610169C90703D0016921F0010188
:102B00000161F0BD002C01400004004000080040BD
:102B100010B5846842EA032224F47F440A43224326
:102B2000826010BD826822F070020A4342F0070101
:102B30008160704710B5036A046A24F001040462DE
:102B4000846924F0F00444EA021423F00A020A43E0
:102B50008461026210BD10B5036A046A24F0100497
:102B60000462846923F0A00324F4704444EA02322E
:102B700043EA01118261016210BDFEE7490050EA9B
:102B8000C12018BF04204A0D18BF40F0010040F2D8
:102B9000FF72B2EB515F08BF40F00200012808BF8E
:102BA000052070470907090E002804DB00F1E0202A
:102BB00080F80014704700F00F0000F1E02080F86A
:102BC000141D704730380A2801D2012070470020B8
:102BD00070470000FEF700FFFFF728FFFFF7B6FE83
:102BE000FFF7CAFEFFF7E8FE0748FFF72CFE08B123
:102BF00072B6FEE7044800F03BF808B172B6FEE793
:102C00000248FFF769FAFEE798000020EC00002078
:102C100070B5802813D2402911D20B4B012401F04A
:102C200007051E79AC40094BC90800EBC1100EB175
:102C300032B101E0012A03D0195CA143195470BDDF
:102C4000195C2143FAE7000008000020340100204D
:102C500010B5064A00214FF4806328B1FF24545474
:102C6000491C9942F9D310BD0024F8E73401002033
:102C700070B505466420FEF7E7FAAE21284600F05D
:102C800019F904462021284600F014F904441021C3
:102C9000284600F00FF90444B021284600F00AF954
:102CA0000444C821284600F005F9044400212846C0
:102CB00000F000F904441021284600F0FBF8044419
:102CC0004021284600F0F6F804448121284600F00F
:102CD000F1F80444FF21284600F0ECF80444A12157
:102CE000284600F0E7F80444A621284600F0E2F860
:102CF0000444A821284600F0DDF804443F2128467A
:102D000000F0D8F80444A421284600F0D3F8044485
:102D1000D321284600F0CEF804440021284600F0D4
:102D2000C9F80444D521284600F0C4F80444F02131
:102D3000284600F0BFF80444D921284600F0BAF82C
:102D400004442221284600F0B5F80444DA2128463C
:102D500000F0B0F804441221284600F0ABF8044417
:102D6000DB21284600F0A6F804442021284600F084
:102D7000A1F804448D21284600F09CF80444142155
:102D8000284600F097F80444AF21284600F092F856
:102D9000E04201D0012070BD0020FFF759FF284616
:102DA00000F010F8034800210180418001214171A9
:102DB000002070BD08000020014A1080518070473B
:102DC000080000202DE9FE4300246425114F8046B1
:102DD000802600BF04F1B000C1B2404600F06AF89E
:102DE0000021404600F066F81021404600F062F8ED
:102DF00007EBC410CDE9000601234022782102959B
:102E00004046FEF71BFD641CE4B2082CE2D3BDE88B
:102E1000FE830000340100202DE9FF4F8346244843
:102E20009246CEB202883244802A06D28146408839
:102E3000C1F307273844402803D3002004B0BDE87D
:102E4000F08F002528E000BFABF1200000FB075009
:102E500000243AF810801CE008FA04F0000409D5B8
:102E600099F8021099F8000029442044C9B2C0B270
:102E7000039A0BE00398C0B15FF0000299F80210CA
:102E800099F8000029442044C9B2C0B2FFF7C0FE3F
:102E9000641CA642E0D86D1CAF42D5D8B9F800102A
:102EA00058463144A9F80010C8E70122E6E70000BF
:102EB0000800002003B583B00A23012204A98DE88D
:102EC0000E00134600227821FEF7B8FC05B000BDC5
:102ED000F0B51D460E46174604460AE02B463A4614
:102EE0003146FFF799FF2178884201D0C8B2F0BD82
:102EF000641C20780028F1D1C0B2F0BD10B50029C3
:102F00000AD00878002807D005487844FDF788FDE6
:102F1000002801D0002010BD0248784410BD0000F8
:102F2000F20C0000EA0C000002494FF0000000F033
:102F3000C8B900BF0000F87F2DE9C04130B4DFF808
:102F4000A0C23CEA111418BF3CEA131400F0EC8054
:102F500081EA03051CEA111444EAD57418BF1CEA7F
:102F6000131500F0C780A4EB05044FF0004545EAB7
:102F7000C12145EAC32341EA505143EA525304F1C7
:102F80007F74994204F500344FEAC0204FEAC22210
:102F900008BF904200F09C804FEA13650FF2401684
:102FA000765D4FEA134506FB05F7C7F1807706FB10
:102FB00007F74FEAD737A7FB03687642C8F5803892
:102FC000A7FB06CE38BFA8F1010807FB08E64FF0C3
:102FD000000EA6FB028CE6FB03CEDCF1000CCEF16A
:102FE000004E38BFAEF1010EA6FB0C584FF00007A3
:102FF0004FF00005E6FB0E87A1FB08C6A0FB07CE3D
:1030000016EB0E0645F10005E1FB076515F1E04EF4
:103010007EBFA4F580345FEA46066D4116F1800755
:1030200045F100054FEA17274FEA066647EA0567AC
:10303000A6F1DE46B6F1805F4FEA15251FD9384666
:1030400024F0010C05EBC471BCF1FE6F01EB0C1117
:1030500002D8F0BCBDE8008124425CBF01F5801EAF
:103060009EEAC47F02D4F0BCBDE80081244238D47B
:10307000F0BCA1F1C041BDE8004100F01AB94FEA2F
:10308000D22242EA43524FEAD323A7FB02864FEAF9
:10309000D02040EA415007FB03661EEA0E0F4FEABC
:1030A000D12105FB026658BFA6EB0056B6EB0056D1
:1030B0004FEA520E4EEAC37E18EB0E0E56EB530E3D
:1030C000BDD518EB02085E417F1C55F10005B6E73F
:1030D0004FF480154FF000074FF000064FF0000846
:1030E000ADE7F0BC4FF0000001F1C04101F000413C
:1030F000BDE8008111EA0C1F0CEA131500D00CE0AA
:1031000013EA0C1F00F025804FF00000F0BC81EAAC
:10311000030101F00041BDE80081F0BCBDE80041C1
:1031200081EA030100F0C5B8F0BCBDE8004170B50C
:1031300000F071F8097EFC3E00F007B881EA030157
:103140004FF0000001F00041704781EA030100F0F8
:10315000B0B8F0BCBDE800414FF000002149704715
:10316000FFFDFBF9F7F5F4F2F0EEEDEBE9E8E6E44C
:10317000E3E1E0DEDDDBDAD8D7D5D4D3D1D0CFCDD3
:10318000CCCBCAC8C7C6C5C4C2C1C0BFBEBDBCBB0C
:10319000BAB9B8B7B6B5B4B3B2B1B0AFAEADACAB07
:1031A000AAA9A8A8A7A6A5A4A3A3A2A1A09F9F9EE1
:1031B0009D9C9C9B9A999998979796959594939393
:1031C000929191908F8F8E8E8D8C8C8B8B8A89892A
:1031D00088888787868585848483838282818180AD
:1031E0000000FF070000F87F10F0004248BF404297
:1031F000B0FA80F310FA03F10AD0C3F11D0303F50E
:1032000080634FEA415002EB035202EBD121704739
:103210004FF0000070470EF1020E2EF0030E5EF824
:10322000046B364205D4012A43EB030515F5001F54
:1032300012D8012841EB010C1CF5001F0CD80ED14F
:103240004FEAD17C15F5001F0CEB4C0C0CF1020C75
:1032500008BF4CEBD37C04E04FF0080C01E04FEAD0
:10326000D37C0CEB4C0526FA05F606F00706B6F102
:10327000040C06D20EEB860CBDE870404CF0010C3D
:103280006047DFE80CF0090B02024FF000414FF0FD
:103290000000A1F5002170BD19461046012851EB30
:1032A000010418BFD4F5001484BF002001F00041D0
:1032B00070BD0808A0F500114FEA31017047FDF715
:1032C0002DB90CF00F03092B08BF082000F059801E
:1032D0000A2B0BD0082B18BF704708BF1CF0400FFB
:1032E0000AD04FF000004FF0000170471CF0400F73
:1032F00018BF4FF0004070471CF0100F08D020F0AE
:10330000704300F07F4242EAD3014FEA43707047B6
:1033100000F0604021F07F4242EA000201F07F406D
:1033200040EA727070474FF0FF0C4CF4E06C1CEAFE
:1033300011531CBF9CEA030C9445C2BFDA4201EB57
:1033400002517047002B0DD0BCF1000F0FD0002AA6
:1033500001F00041A4BF41F0E04141F07F614FF036
:103360000000704701F000414FF00000704750EA44
:1033700001334FF09B0C18BF4CF0806C7FF4D4AD40
:1033800070471CF4801F11D01CF4E02F03D06FEAAB
:10339000CC31490070474FF04050EFF3008222F0EB
:1033A000704242EA000282F3008870474FF000004A
:1033B0007047000000000000000000000000000056
:1033C00000000000000000100010001000100010AD
:1033D0000010000000100000000000280028002855
:1033E00000000000000000000000000000000024B9
:1033F0000024007C00240048007C004800480000B5
:1034000000000038005400500038001400540054EC
:103410000038001000000020005400580030002840
:1034200000540014000800000000001000280028CC
:103430000010003400480048003400000000001074
:10344000001000100000000000000000000000005C
:1034500000000008001000200020002000200020B4
:1034600000200010000800200010000800080008DC
:1034700000080008000800100020001000380010AC
:103480000028000000000000000000000000000014
:10349000000000100010007C001000100000000070
:1034A000000000000000000000000000000000001C
:1034B00000100010001000000000000000000000DC
:1034C00000380000000000000000000000000000C4
:1034D00000000000000000000010000000000008D4
:1034E0000008001000100010001000200020000054
:1034F00000000038004400440054004400440044EC
:1035000000380000000000100030005000100010D3
:1035100000100010001000000000003800440044BB
:103520000004000800100020007C000000000038AB
:1035300000440004001800040004004400380000A7
:10354000000000080018002800280048007C00083F
:10355000000800000000007C0040004000780004EB
:10356000000400440038000000000038004400401F
:103570000078004400440044003800000000007C53
:1035800000040008001000100020002000200000AF
:103590000000003800440044003800440044004467
:1035A0000038000000000038004400440044003CA3
:1035B000000400440038000000000000000000107B
:1035C00000000000000000000010000000000000EB
:1035D00000000000001000000000000000100010BB
:1035E000001000000000000C003000400030000C13
:1035F000000000000000000000000000007C00004F
:10360000007C0000000000000000000000000060DE
:1036100000180004001800600000000000000038DE
:10362000004400040008001000100000001000001A
:10363000000000380044004C0054005C0040004092
:103640000038000000000010002800280028002892
:10365000007C004400440000000000780044004466
:103660000078004400440044007800000000003866
:10367000004400400040004000400044003800008A
:10368000000000700048004400440044004400482A
:10369000007000000000007C00400040007C004002
:1036A00000400040007C00000000007C0040004022
:1036B000007800400040004000400000000000385A
:1036C000004400400040005C00440044003800001A
:1036D0000000004400440044007C004400440044D6
:1036E000004400000000003800100010001000101E
:1036F0000010001000380000000000040004000466
:1037000000040004000400440038000000000044ED
:10371000004800500060005000480048004400008D
:1037200000000040004000400040004000400040D9
:10373000007C000000000044006C006C0054004459
:1037400000440044004400000000004400640064A1
:1037500000540054004C004C0044000000000038AD
:103760000044004400440044004400440038000089
:10377000000000780044004400440078004000400D
:1037800000400000000000380044004400440044B1
:103790000044005400380004000000780044004455
:1037A0000044007800480048004400000000003851
:1037B00000440040003000080004004400380000CD
:1037C0000000007C0010001000100010001000101D
:1037D0000010000000000044004400440044004485
:1037E000004400440038000000000044004400444D
:1037F00000280028002800100010000000000044ED
:103800000044005400540054006C002800280000BC
:1038100000000044002800280010001000280028A4
:10382000004400000000004400440028002800106C
:1038300000100010001000000000007C00040008D0
:103840000010001000200040007C00000000001864
:1038500000100010001000100010001000100010E8
:1038600000180020002000100010001000100008B8
:1038700000080000000000300010001000100010D0
:103880000010001000100010003000100028002868
:1038900000440000000000000000000000000000E4
:1038A0000000000000000000000000000000000018
:1038B00000FE0020001000000000000000000000DA
:1038C0000000000000000000000000380044003C40
:1038D0000044004C0034000000000040004000584C
:1038E0000064004400440064005800000000000030
:1038F0000000003800440040004000440038000050
:103900000000000400040034004C00440044004C5B
:103910000034000000000000000000380044007C7B
:1039200000400044003800000000000C0010007C43
:103930000010001000100010001000000000000037
:1039400000000034004C00440044004C00340004EB
:1039500000780040004000580064004400440044E7
:103960000044000000000010000000700010001073
:103970000010001000100000000000100000007097
:1039800000100010001000100010001000E00040B7
:103990000040004800500060005000480044000013
:1039A0000000007000100010001000100010001047
:1039B00000100000000000000000007800540054D7
:1039C00000540054005400000000000000000058A3
:1039D0000064004400440044004400000000000073
:1039E0000000003800440044004400440038000057
:1039F000000000000000005800640044004400641F
:103A0000005800400040000000000034004C00441A
:103A10000044004C00340004000400000000005882
:103A20000064004000400040004000000000000032
:103A30000000003800440030000800440038000056
:103A4000000000200020007800200020002000203E
:103A50000018000000000000000000440044004482
:103A60000044004C0034000000000000000000444E
:103A7000004400280028002800100000000000007A
:103A80000000005400540054006C0028002800007E
:103A90000000000000000044002800100010002872
:103AA0000044000000000000000000440044002822
:103AB0000028001000100010006000000000007CD2
:103AC0000008001000200040007C000000000018EA
:103AD0000010001000100020002000100010001046
:103AE000001800100010001000100010001000104E
:103AF000001000100010003000100010001000082E
:103B0000000800100010001000300000000000004D
:103B10000074004C000000000000000000000102E2
:103B200002030405060708090A0B0C0D0E0F1010FE
:103B3000000000000000000001020304060708095D
:103B4000000000000102030402400000000000A089
:103B50000000000005400000000000C80000000058
:103B60000C4000000000409C0000000019400000D4
:103B70000020BCBE0000000034400000BFC91B8E06
:103B800000000004B5400000504BCFD06607E2CFE4
:103B9000010000006C4100003E8251AADFEEA73414
:103BA00001000000D9420000DCB5A0E23A301F97C6
:103BB000FFFFFFFFB4450000FD25A0C8E9A3C14FEA
:103BC000FFFFFFFFFF3F000000000080000000003B
:103BD000FF3F00000000008000000000183C0008CB
:103BE000000000202000000028010008383C0008E8
:103BF00020000020780B0000440100081C00000099
:103C000043000000F8FFFFFF0C0000000E00000062
:103C10000F0000002E000000070A0000B233000869
:103C20000000000000000000010000001000000083
:083C30000000000000127A0000
:04000005080000ED02
:00000001FF
